{
	"contracts/GameContract.sol": {
		"GameContract": {
			"abi": [
				{
					"inputs": [
						{
							"internalType": "address",
							"name": "_cz4TokenAddress",
							"type": "address"
						},
						{
							"internalType": "address",
							"name": "_fasuTokenAddress",
							"type": "address"
						}
					],
					"stateMutability": "nonpayable",
					"type": "constructor"
				},
				{
					"inputs": [
						{
							"internalType": "address",
							"name": "owner",
							"type": "address"
						}
					],
					"name": "OwnableInvalidOwner",
					"type": "error"
				},
				{
					"inputs": [
						{
							"internalType": "address",
							"name": "account",
							"type": "address"
						}
					],
					"name": "OwnableUnauthorizedAccount",
					"type": "error"
				},
				{
					"inputs": [
						{
							"internalType": "address",
							"name": "token",
							"type": "address"
						}
					],
					"name": "SafeERC20FailedOperation",
					"type": "error"
				},
				{
					"anonymous": false,
					"inputs": [
						{
							"indexed": true,
							"internalType": "address",
							"name": "user",
							"type": "address"
						},
						{
							"indexed": false,
							"internalType": "uint256",
							"name": "fasuAmount",
							"type": "uint256"
						},
						{
							"indexed": false,
							"internalType": "uint256",
							"name": "cz4Reward",
							"type": "uint256"
						}
					],
					"name": "FASUDeposited",
					"type": "event"
				},
				{
					"anonymous": false,
					"inputs": [
						{
							"indexed": true,
							"internalType": "address",
							"name": "previousOwner",
							"type": "address"
						},
						{
							"indexed": true,
							"internalType": "address",
							"name": "newOwner",
							"type": "address"
						}
					],
					"name": "OwnershipTransferred",
					"type": "event"
				},
				{
					"anonymous": false,
					"inputs": [
						{
							"indexed": false,
							"internalType": "uint256",
							"name": "amount",
							"type": "uint256"
						}
					],
					"name": "PrizeAdded",
					"type": "event"
				},
				{
					"inputs": [
						{
							"internalType": "uint256",
							"name": "amount",
							"type": "uint256"
						}
					],
					"name": "addPrize",
					"outputs": [],
					"stateMutability": "nonpayable",
					"type": "function"
				},
				{
					"inputs": [],
					"name": "cz4Token",
					"outputs": [
						{
							"internalType": "contract IERC20",
							"name": "",
							"type": "address"
						}
					],
					"stateMutability": "view",
					"type": "function"
				},
				{
					"inputs": [
						{
							"internalType": "uint256",
							"name": "fasuAmount",
							"type": "uint256"
						}
					],
					"name": "depositFASU",
					"outputs": [],
					"stateMutability": "nonpayable",
					"type": "function"
				},
				{
					"inputs": [],
					"name": "fasuToken",
					"outputs": [
						{
							"internalType": "contract IERC20",
							"name": "",
							"type": "address"
						}
					],
					"stateMutability": "view",
					"type": "function"
				},
				{
					"inputs": [],
					"name": "owner",
					"outputs": [
						{
							"internalType": "address",
							"name": "",
							"type": "address"
						}
					],
					"stateMutability": "view",
					"type": "function"
				},
				{
					"inputs": [],
					"name": "prizeAmount",
					"outputs": [
						{
							"internalType": "uint256",
							"name": "",
							"type": "uint256"
						}
					],
					"stateMutability": "view",
					"type": "function"
				},
				{
					"inputs": [],
					"name": "renounceOwnership",
					"outputs": [],
					"stateMutability": "nonpayable",
					"type": "function"
				},
				{
					"inputs": [
						{
							"internalType": "address",
							"name": "newOwner",
							"type": "address"
						}
					],
					"name": "transferOwnership",
					"outputs": [],
					"stateMutability": "nonpayable",
					"type": "function"
				},
				{
					"inputs": [],
					"name": "withdrawFunds",
					"outputs": [],
					"stateMutability": "nonpayable",
					"type": "function"
				},
				{
					"stateMutability": "payable",
					"type": "receive"
				}
			],
			"devdoc": {
				"errors": {
					"OwnableInvalidOwner(address)": [
						{
							"details": "The owner is not a valid owner account. (eg. `address(0)`)"
						}
					],
					"OwnableUnauthorizedAccount(address)": [
						{
							"details": "The caller account is not authorized to perform an operation."
						}
					],
					"SafeERC20FailedOperation(address)": [
						{
							"details": "An operation with an ERC-20 token failed."
						}
					]
				},
				"kind": "dev",
				"methods": {
					"owner()": {
						"details": "Returns the address of the current owner."
					},
					"renounceOwnership()": {
						"details": "Leaves the contract without owner. It will not be possible to call `onlyOwner` functions. Can only be called by the current owner. NOTE: Renouncing ownership will leave the contract without an owner, thereby disabling any functionality that is only available to the owner."
					},
					"transferOwnership(address)": {
						"details": "Transfers ownership of the contract to a new account (`newOwner`). Can only be called by the current owner."
					}
				},
				"version": 1
			},
			"evm": {
				"assembly": "    /* \"contracts/GameContract.sol\":234:2742  contract GameContract is Ownable(0x50DD541ad540d046E5822a1D5440060D58776eA6) {... */\n  mstore(0x40, 0x80)\n    /* \"contracts/GameContract.sol\":760:929  constructor(address _cz4TokenAddress, address _fasuTokenAddress) ... */\n  callvalue\n  dup1\n  iszero\n  tag_1\n  jumpi\n  0x00\n  dup1\n  revert\ntag_1:\n  pop\n  mload(0x40)\n  sub(codesize, bytecodeSize)\n  dup1\n  bytecodeSize\n  dup4\n  codecopy\n  dup2\n  dup2\n  add\n  0x40\n  mstore\n  dup2\n  add\n  swap1\n  tag_2\n  swap2\n  swap1\n  tag_3\n  jump\t// in\ntag_2:\n    /* \"contracts/GameContract.sol\":267:309  0x50DD541ad540d046E5822a1D5440060D58776eA6 */\n  0x50dd541ad540d046e5822a1d5440060d58776ea6\n    /* \"@openzeppelin/contracts/access/Ownable.sol\":1297:1298  0 */\n  0x00\n    /* \"@openzeppelin/contracts/access/Ownable.sol\":1273:1299  initialOwner == address(0) */\n  0xffffffffffffffffffffffffffffffffffffffff\n  and\n    /* \"@openzeppelin/contracts/access/Ownable.sol\":1273:1285  initialOwner */\n  dup2\n    /* \"@openzeppelin/contracts/access/Ownable.sol\":1273:1299  initialOwner == address(0) */\n  0xffffffffffffffffffffffffffffffffffffffff\n  and\n  sub\n    /* \"@openzeppelin/contracts/access/Ownable.sol\":1269:1364  if (initialOwner == address(0)) {... */\n  tag_7\n  jumpi\n    /* \"@openzeppelin/contracts/access/Ownable.sol\":1350:1351  0 */\n  0x00\n    /* \"@openzeppelin/contracts/access/Ownable.sol\":1322:1353  OwnableInvalidOwner(address(0)) */\n  mload(0x40)\n  0x1e4fbdf700000000000000000000000000000000000000000000000000000000\n  dup2\n  mstore\n  0x04\n  add\n  tag_8\n  swap2\n  swap1\n  tag_9\n  jump\t// in\ntag_8:\n  mload(0x40)\n  dup1\n  swap2\n  sub\n  swap1\n  revert\n    /* \"@openzeppelin/contracts/access/Ownable.sol\":1269:1364  if (initialOwner == address(0)) {... */\ntag_7:\n    /* \"@openzeppelin/contracts/access/Ownable.sol\":1373:1405  _transferOwnership(initialOwner) */\n  tag_10\n    /* \"@openzeppelin/contracts/access/Ownable.sol\":1392:1404  initialOwner */\n  dup2\n    /* \"@openzeppelin/contracts/access/Ownable.sol\":1373:1391  _transferOwnership */\n  shl(0x20, tag_11)\n    /* \"@openzeppelin/contracts/access/Ownable.sol\":1373:1405  _transferOwnership(initialOwner) */\n  0x20\n  shr\n  jump\t// in\ntag_10:\n    /* \"@openzeppelin/contracts/access/Ownable.sol\":1225:1412  constructor(address initialOwner) {... */\n  pop\n    /* \"contracts/GameContract.sol\":858:874  _cz4TokenAddress */\n  dup2\n    /* \"contracts/GameContract.sol\":840:848  cz4Token */\n  0x01\n  0x00\n    /* \"contracts/GameContract.sol\":840:875  cz4Token = IERC20(_cz4TokenAddress) */\n  0x0100\n  exp\n  dup2\n  sload\n  dup2\n  0xffffffffffffffffffffffffffffffffffffffff\n  mul\n  not\n  and\n  swap1\n  dup4\n  0xffffffffffffffffffffffffffffffffffffffff\n  and\n  mul\n  or\n  swap1\n  sstore\n  pop\n    /* \"contracts/GameContract.sol\":904:921  _fasuTokenAddress */\n  dup1\n    /* \"contracts/GameContract.sol\":885:894  fasuToken */\n  0x02\n  0x00\n    /* \"contracts/GameContract.sol\":885:922  fasuToken = IERC20(_fasuTokenAddress) */\n  0x0100\n  exp\n  dup2\n  sload\n  dup2\n  0xffffffffffffffffffffffffffffffffffffffff\n  mul\n  not\n  and\n  swap1\n  dup4\n  0xffffffffffffffffffffffffffffffffffffffff\n  and\n  mul\n  or\n  swap1\n  sstore\n  pop\n    /* \"contracts/GameContract.sol\":760:929  constructor(address _cz4TokenAddress, address _fasuTokenAddress) ... */\n  pop\n  pop\n    /* \"contracts/GameContract.sol\":234:2742  contract GameContract is Ownable(0x50DD541ad540d046E5822a1D5440060D58776eA6) {... */\n  jump(tag_13)\n    /* \"@openzeppelin/contracts/access/Ownable.sol\":2912:3099  function _transferOwnership(address newOwner) internal virtual {... */\ntag_11:\n    /* \"@openzeppelin/contracts/access/Ownable.sol\":2985:3001  address oldOwner */\n  0x00\n    /* \"@openzeppelin/contracts/access/Ownable.sol\":3004:3010  _owner */\n  dup1\n  0x00\n  swap1\n  sload\n  swap1\n  0x0100\n  exp\n  swap1\n  div\n  0xffffffffffffffffffffffffffffffffffffffff\n  and\n    /* \"@openzeppelin/contracts/access/Ownable.sol\":2985:3010  address oldOwner = _owner */\n  swap1\n  pop\n    /* \"@openzeppelin/contracts/access/Ownable.sol\":3029:3037  newOwner */\n  dup2\n    /* \"@openzeppelin/contracts/access/Ownable.sol\":3020:3026  _owner */\n  0x00\n  dup1\n    /* \"@openzeppelin/contracts/access/Ownable.sol\":3020:3037  _owner = newOwner */\n  0x0100\n  exp\n  dup2\n  sload\n  dup2\n  0xffffffffffffffffffffffffffffffffffffffff\n  mul\n  not\n  and\n  swap1\n  dup4\n  0xffffffffffffffffffffffffffffffffffffffff\n  and\n  mul\n  or\n  swap1\n  sstore\n  pop\n    /* \"@openzeppelin/contracts/access/Ownable.sol\":3083:3091  newOwner */\n  dup2\n    /* \"@openzeppelin/contracts/access/Ownable.sol\":3052:3092  OwnershipTransferred(oldOwner, newOwner) */\n  0xffffffffffffffffffffffffffffffffffffffff\n  and\n    /* \"@openzeppelin/contracts/access/Ownable.sol\":3073:3081  oldOwner */\n  dup2\n    /* \"@openzeppelin/contracts/access/Ownable.sol\":3052:3092  OwnershipTransferred(oldOwner, newOwner) */\n  0xffffffffffffffffffffffffffffffffffffffff\n  and\n  0x8be0079c531659141344cd1fd0a4f28419497f9722a3daafe3b4186f6b6457e0\n  mload(0x40)\n  mload(0x40)\n  dup1\n  swap2\n  sub\n  swap1\n  log3\n    /* \"@openzeppelin/contracts/access/Ownable.sol\":2975:3099  {... */\n  pop\n    /* \"@openzeppelin/contracts/access/Ownable.sol\":2912:3099  function _transferOwnership(address newOwner) internal virtual {... */\n  pop\n  jump\t// out\n    /* \"#utility.yul\":88:205   */\ntag_16:\n    /* \"#utility.yul\":197:198   */\n  0x00\n    /* \"#utility.yul\":194:195   */\n  dup1\n    /* \"#utility.yul\":187:199   */\n  revert\n    /* \"#utility.yul\":334:460   */\ntag_18:\n    /* \"#utility.yul\":371:378   */\n  0x00\n    /* \"#utility.yul\":411:453   */\n  0xffffffffffffffffffffffffffffffffffffffff\n    /* \"#utility.yul\":404:409   */\n  dup3\n    /* \"#utility.yul\":400:454   */\n  and\n    /* \"#utility.yul\":389:454   */\n  swap1\n  pop\n    /* \"#utility.yul\":334:460   */\n  swap2\n  swap1\n  pop\n  jump\t// out\n    /* \"#utility.yul\":466:562   */\ntag_19:\n    /* \"#utility.yul\":503:510   */\n  0x00\n    /* \"#utility.yul\":532:556   */\n  tag_29\n    /* \"#utility.yul\":550:555   */\n  dup3\n    /* \"#utility.yul\":532:556   */\n  tag_18\n  jump\t// in\ntag_29:\n    /* \"#utility.yul\":521:556   */\n  swap1\n  pop\n    /* \"#utility.yul\":466:562   */\n  swap2\n  swap1\n  pop\n  jump\t// out\n    /* \"#utility.yul\":568:690   */\ntag_20:\n    /* \"#utility.yul\":641:665   */\n  tag_31\n    /* \"#utility.yul\":659:664   */\n  dup2\n    /* \"#utility.yul\":641:665   */\n  tag_19\n  jump\t// in\ntag_31:\n    /* \"#utility.yul\":634:639   */\n  dup2\n    /* \"#utility.yul\":631:666   */\n  eq\n    /* \"#utility.yul\":621:684   */\n  tag_32\n  jumpi\n    /* \"#utility.yul\":680:681   */\n  0x00\n    /* \"#utility.yul\":677:678   */\n  dup1\n    /* \"#utility.yul\":670:682   */\n  revert\n    /* \"#utility.yul\":621:684   */\ntag_32:\n    /* \"#utility.yul\":568:690   */\n  pop\n  jump\t// out\n    /* \"#utility.yul\":696:839   */\ntag_21:\n    /* \"#utility.yul\":753:758   */\n  0x00\n    /* \"#utility.yul\":784:790   */\n  dup2\n    /* \"#utility.yul\":778:791   */\n  mload\n    /* \"#utility.yul\":769:791   */\n  swap1\n  pop\n    /* \"#utility.yul\":800:833   */\n  tag_34\n    /* \"#utility.yul\":827:832   */\n  dup2\n    /* \"#utility.yul\":800:833   */\n  tag_20\n  jump\t// in\ntag_34:\n    /* \"#utility.yul\":696:839   */\n  swap3\n  swap2\n  pop\n  pop\n  jump\t// out\n    /* \"#utility.yul\":845:1352   */\ntag_3:\n    /* \"#utility.yul\":924:930   */\n  0x00\n    /* \"#utility.yul\":932:938   */\n  dup1\n    /* \"#utility.yul\":981:983   */\n  0x40\n    /* \"#utility.yul\":969:978   */\n  dup4\n    /* \"#utility.yul\":960:967   */\n  dup6\n    /* \"#utility.yul\":956:979   */\n  sub\n    /* \"#utility.yul\":952:984   */\n  slt\n    /* \"#utility.yul\":949:1068   */\n  iszero\n  tag_36\n  jumpi\n    /* \"#utility.yul\":987:1066   */\n  tag_37\n  tag_16\n  jump\t// in\ntag_37:\n    /* \"#utility.yul\":949:1068   */\ntag_36:\n    /* \"#utility.yul\":1107:1108   */\n  0x00\n    /* \"#utility.yul\":1132:1196   */\n  tag_38\n    /* \"#utility.yul\":1188:1195   */\n  dup6\n    /* \"#utility.yul\":1179:1185   */\n  dup3\n    /* \"#utility.yul\":1168:1177   */\n  dup7\n    /* \"#utility.yul\":1164:1186   */\n  add\n    /* \"#utility.yul\":1132:1196   */\n  tag_21\n  jump\t// in\ntag_38:\n    /* \"#utility.yul\":1122:1196   */\n  swap3\n  pop\n    /* \"#utility.yul\":1078:1206   */\n  pop\n    /* \"#utility.yul\":1245:1247   */\n  0x20\n    /* \"#utility.yul\":1271:1335   */\n  tag_39\n    /* \"#utility.yul\":1327:1334   */\n  dup6\n    /* \"#utility.yul\":1318:1324   */\n  dup3\n    /* \"#utility.yul\":1307:1316   */\n  dup7\n    /* \"#utility.yul\":1303:1325   */\n  add\n    /* \"#utility.yul\":1271:1335   */\n  tag_21\n  jump\t// in\ntag_39:\n    /* \"#utility.yul\":1261:1335   */\n  swap2\n  pop\n    /* \"#utility.yul\":1216:1345   */\n  pop\n    /* \"#utility.yul\":845:1352   */\n  swap3\n  pop\n  swap3\n  swap1\n  pop\n  jump\t// out\n    /* \"#utility.yul\":1358:1476   */\ntag_22:\n    /* \"#utility.yul\":1445:1469   */\n  tag_41\n    /* \"#utility.yul\":1463:1468   */\n  dup2\n    /* \"#utility.yul\":1445:1469   */\n  tag_19\n  jump\t// in\ntag_41:\n    /* \"#utility.yul\":1440:1443   */\n  dup3\n    /* \"#utility.yul\":1433:1470   */\n  mstore\n    /* \"#utility.yul\":1358:1476   */\n  pop\n  pop\n  jump\t// out\n    /* \"#utility.yul\":1482:1704   */\ntag_9:\n    /* \"#utility.yul\":1575:1579   */\n  0x00\n    /* \"#utility.yul\":1613:1615   */\n  0x20\n    /* \"#utility.yul\":1602:1611   */\n  dup3\n    /* \"#utility.yul\":1598:1616   */\n  add\n    /* \"#utility.yul\":1590:1616   */\n  swap1\n  pop\n    /* \"#utility.yul\":1626:1697   */\n  tag_43\n    /* \"#utility.yul\":1694:1695   */\n  0x00\n    /* \"#utility.yul\":1683:1692   */\n  dup4\n    /* \"#utility.yul\":1679:1696   */\n  add\n    /* \"#utility.yul\":1670:1676   */\n  dup5\n    /* \"#utility.yul\":1626:1697   */\n  tag_22\n  jump\t// in\ntag_43:\n    /* \"#utility.yul\":1482:1704   */\n  swap3\n  swap2\n  pop\n  pop\n  jump\t// out\n    /* \"contracts/GameContract.sol\":234:2742  contract GameContract is Ownable(0x50DD541ad540d046E5822a1D5440060D58776eA6) {... */\ntag_13:\n  dataSize(sub_0)\n  dup1\n  dataOffset(sub_0)\n  0x00\n  codecopy\n  0x00\n  return\nstop\n\nsub_0: assembly {\n        /* \"contracts/GameContract.sol\":234:2742  contract GameContract is Ownable(0x50DD541ad540d046E5822a1D5440060D58776eA6) {... */\n      mstore(0x40, 0x80)\n      jumpi(tag_1, lt(calldatasize, 0x04))\n      shr(0xe0, calldataload(0x00))\n      dup1\n      0x715018a6\n      gt\n      tag_12\n      jumpi\n      dup1\n      0x715018a6\n      eq\n      tag_7\n      jumpi\n      dup1\n      0x785fa627\n      eq\n      tag_8\n      jumpi\n      dup1\n      0x79d4964f\n      eq\n      tag_9\n      jumpi\n      dup1\n      0x8da5cb5b\n      eq\n      tag_10\n      jumpi\n      dup1\n      0xf2fde38b\n      eq\n      tag_11\n      jumpi\n      jump(tag_2)\n    tag_12:\n      dup1\n      0x1e1a6e6e\n      eq\n      tag_3\n      jumpi\n      dup1\n      0x24600fc3\n      eq\n      tag_4\n      jumpi\n      dup1\n      0x2a050024\n      eq\n      tag_5\n      jumpi\n      dup1\n      0x44a88070\n      eq\n      tag_6\n      jumpi\n      jump(tag_2)\n    tag_1:\n      jumpi(tag_2, calldatasize)\n      stop\n    tag_2:\n      0x00\n      dup1\n      revert\n        /* \"contracts/GameContract.sol\":510:532  IERC20 public cz4Token */\n    tag_3:\n      callvalue\n      dup1\n      iszero\n      tag_15\n      jumpi\n      0x00\n      dup1\n      revert\n    tag_15:\n      pop\n      tag_16\n      tag_17\n      jump\t// in\n    tag_16:\n      mload(0x40)\n      tag_18\n      swap2\n      swap1\n      tag_19\n      jump\t// in\n    tag_18:\n      mload(0x40)\n      dup1\n      swap2\n      sub\n      swap1\n      return\n        /* \"contracts/GameContract.sol\":2051:2669  function withdrawFunds() external onlyOwner {... */\n    tag_4:\n      callvalue\n      dup1\n      iszero\n      tag_20\n      jumpi\n      0x00\n      dup1\n      revert\n    tag_20:\n      pop\n      tag_21\n      tag_22\n      jump\t// in\n    tag_21:\n      stop\n        /* \"contracts/GameContract.sol\":985:1248  function addPrize(uint amount) external onlyOwner {... */\n    tag_5:\n      callvalue\n      dup1\n      iszero\n      tag_23\n      jumpi\n      0x00\n      dup1\n      revert\n    tag_23:\n      pop\n      tag_24\n      0x04\n      dup1\n      calldatasize\n      sub\n      dup2\n      add\n      swap1\n      tag_25\n      swap2\n      swap1\n      tag_26\n      jump\t// in\n    tag_25:\n      tag_27\n      jump\t// in\n    tag_24:\n      stop\n        /* \"contracts/GameContract.sol\":539:562  IERC20 public fasuToken */\n    tag_6:\n      callvalue\n      dup1\n      iszero\n      tag_28\n      jumpi\n      0x00\n      dup1\n      revert\n    tag_28:\n      pop\n      tag_29\n      tag_30\n      jump\t// in\n    tag_29:\n      mload(0x40)\n      tag_31\n      swap2\n      swap1\n      tag_19\n      jump\t// in\n    tag_31:\n      mload(0x40)\n      dup1\n      swap2\n      sub\n      swap1\n      return\n        /* \"@openzeppelin/contracts/access/Ownable.sol\":2293:2394  function renounceOwnership() public virtual onlyOwner {... */\n    tag_7:\n      callvalue\n      dup1\n      iszero\n      tag_32\n      jumpi\n      0x00\n      dup1\n      revert\n    tag_32:\n      pop\n      tag_33\n      tag_34\n      jump\t// in\n    tag_33:\n      stop\n        /* \"contracts/GameContract.sol\":601:624  uint public prizeAmount */\n    tag_8:\n      callvalue\n      dup1\n      iszero\n      tag_35\n      jumpi\n      0x00\n      dup1\n      revert\n    tag_35:\n      pop\n      tag_36\n      tag_37\n      jump\t// in\n    tag_36:\n      mload(0x40)\n      tag_38\n      swap2\n      swap1\n      tag_39\n      jump\t// in\n    tag_38:\n      mload(0x40)\n      dup1\n      swap2\n      sub\n      swap1\n      return\n        /* \"contracts/GameContract.sol\":1255:1984  function depositFASU(uint fasuAmount) external {... */\n    tag_9:\n      callvalue\n      dup1\n      iszero\n      tag_40\n      jumpi\n      0x00\n      dup1\n      revert\n    tag_40:\n      pop\n      tag_41\n      0x04\n      dup1\n      calldatasize\n      sub\n      dup2\n      add\n      swap1\n      tag_42\n      swap2\n      swap1\n      tag_26\n      jump\t// in\n    tag_42:\n      tag_43\n      jump\t// in\n    tag_41:\n      stop\n        /* \"@openzeppelin/contracts/access/Ownable.sol\":1638:1723  function owner() public view virtual returns (address) {... */\n    tag_10:\n      callvalue\n      dup1\n      iszero\n      tag_44\n      jumpi\n      0x00\n      dup1\n      revert\n    tag_44:\n      pop\n      tag_45\n      tag_46\n      jump\t// in\n    tag_45:\n      mload(0x40)\n      tag_47\n      swap2\n      swap1\n      tag_48\n      jump\t// in\n    tag_47:\n      mload(0x40)\n      dup1\n      swap2\n      sub\n      swap1\n      return\n        /* \"@openzeppelin/contracts/access/Ownable.sol\":2543:2758  function transferOwnership(address newOwner) public virtual onlyOwner {... */\n    tag_11:\n      callvalue\n      dup1\n      iszero\n      tag_49\n      jumpi\n      0x00\n      dup1\n      revert\n    tag_49:\n      pop\n      tag_50\n      0x04\n      dup1\n      calldatasize\n      sub\n      dup2\n      add\n      swap1\n      tag_51\n      swap2\n      swap1\n      tag_52\n      jump\t// in\n    tag_51:\n      tag_53\n      jump\t// in\n    tag_50:\n      stop\n        /* \"contracts/GameContract.sol\":510:532  IERC20 public cz4Token */\n    tag_17:\n      0x01\n      0x00\n      swap1\n      sload\n      swap1\n      0x0100\n      exp\n      swap1\n      div\n      0xffffffffffffffffffffffffffffffffffffffff\n      and\n      dup2\n      jump\t// out\n        /* \"contracts/GameContract.sol\":2051:2669  function withdrawFunds() external onlyOwner {... */\n    tag_22:\n        /* \"@openzeppelin/contracts/access/Ownable.sol\":1531:1544  _checkOwner() */\n      tag_55\n        /* \"@openzeppelin/contracts/access/Ownable.sol\":1531:1542  _checkOwner */\n      tag_56\n        /* \"@openzeppelin/contracts/access/Ownable.sol\":1531:1544  _checkOwner() */\n      jump\t// in\n    tag_55:\n        /* \"contracts/GameContract.sol\":2105:2120  uint ethBalance */\n      0x00\n        /* \"contracts/GameContract.sol\":2123:2144  address(this).balance */\n      selfbalance\n        /* \"contracts/GameContract.sol\":2105:2144  uint ethBalance = address(this).balance */\n      swap1\n      pop\n        /* \"contracts/GameContract.sol\":2154:2169  uint cz4Balance */\n      0x00\n        /* \"contracts/GameContract.sol\":2172:2180  cz4Token */\n      0x01\n      0x00\n      swap1\n      sload\n      swap1\n      0x0100\n      exp\n      swap1\n      div\n      0xffffffffffffffffffffffffffffffffffffffff\n      and\n        /* \"contracts/GameContract.sol\":2172:2190  cz4Token.balanceOf */\n      0xffffffffffffffffffffffffffffffffffffffff\n      and\n      0x70a08231\n        /* \"contracts/GameContract.sol\":2199:2203  this */\n      address\n        /* \"contracts/GameContract.sol\":2172:2205  cz4Token.balanceOf(address(this)) */\n      mload(0x40)\n      dup3\n      0xffffffff\n      and\n      0xe0\n      shl\n      dup2\n      mstore\n      0x04\n      add\n      tag_58\n      swap2\n      swap1\n      tag_48\n      jump\t// in\n    tag_58:\n      0x20\n      mload(0x40)\n      dup1\n      dup4\n      sub\n      dup2\n      dup7\n      gas\n      staticcall\n      iszero\n      dup1\n      iszero\n      tag_60\n      jumpi\n      returndatasize\n      0x00\n      dup1\n      returndatacopy\n      revert(0x00, returndatasize)\n    tag_60:\n      pop\n      pop\n      pop\n      pop\n      mload(0x40)\n      returndatasize\n      not(0x1f)\n      0x1f\n      dup3\n      add\n      and\n      dup3\n      add\n      dup1\n      0x40\n      mstore\n      pop\n      dup2\n      add\n      swap1\n      tag_61\n      swap2\n      swap1\n      tag_62\n      jump\t// in\n    tag_61:\n        /* \"contracts/GameContract.sol\":2154:2205  uint cz4Balance = cz4Token.balanceOf(address(this)) */\n      swap1\n      pop\n        /* \"contracts/GameContract.sol\":2215:2231  uint fasuBalance */\n      0x00\n        /* \"contracts/GameContract.sol\":2234:2243  fasuToken */\n      0x02\n      0x00\n      swap1\n      sload\n      swap1\n      0x0100\n      exp\n      swap1\n      div\n      0xffffffffffffffffffffffffffffffffffffffff\n      and\n        /* \"contracts/GameContract.sol\":2234:2253  fasuToken.balanceOf */\n      0xffffffffffffffffffffffffffffffffffffffff\n      and\n      0x70a08231\n        /* \"contracts/GameContract.sol\":2262:2266  this */\n      address\n        /* \"contracts/GameContract.sol\":2234:2268  fasuToken.balanceOf(address(this)) */\n      mload(0x40)\n      dup3\n      0xffffffff\n      and\n      0xe0\n      shl\n      dup2\n      mstore\n      0x04\n      add\n      tag_63\n      swap2\n      swap1\n      tag_48\n      jump\t// in\n    tag_63:\n      0x20\n      mload(0x40)\n      dup1\n      dup4\n      sub\n      dup2\n      dup7\n      gas\n      staticcall\n      iszero\n      dup1\n      iszero\n      tag_65\n      jumpi\n      returndatasize\n      0x00\n      dup1\n      returndatacopy\n      revert(0x00, returndatasize)\n    tag_65:\n      pop\n      pop\n      pop\n      pop\n      mload(0x40)\n      returndatasize\n      not(0x1f)\n      0x1f\n      dup3\n      add\n      and\n      dup3\n      add\n      dup1\n      0x40\n      mstore\n      pop\n      dup2\n      add\n      swap1\n      tag_66\n      swap2\n      swap1\n      tag_62\n      jump\t// in\n    tag_66:\n        /* \"contracts/GameContract.sol\":2215:2268  uint fasuBalance = fasuToken.balanceOf(address(this)) */\n      swap1\n      pop\n        /* \"contracts/GameContract.sol\":2326:2327  0 */\n      0x00\n        /* \"contracts/GameContract.sol\":2313:2323  ethBalance */\n      dup4\n        /* \"contracts/GameContract.sol\":2313:2327  ethBalance > 0 */\n      gt\n        /* \"contracts/GameContract.sol\":2309:2391  if (ethBalance > 0) {... */\n      iszero\n      tag_67\n      jumpi\n        /* \"contracts/GameContract.sol\":2351:2358  owner() */\n      tag_68\n        /* \"contracts/GameContract.sol\":2351:2356  owner */\n      tag_46\n        /* \"contracts/GameContract.sol\":2351:2358  owner() */\n      jump\t// in\n    tag_68:\n        /* \"contracts/GameContract.sol\":2343:2368  payable(owner()).transfer */\n      0xffffffffffffffffffffffffffffffffffffffff\n      and\n        /* \"contracts/GameContract.sol\":2343:2380  payable(owner()).transfer(ethBalance) */\n      0x08fc\n        /* \"contracts/GameContract.sol\":2369:2379  ethBalance */\n      dup5\n        /* \"contracts/GameContract.sol\":2343:2380  payable(owner()).transfer(ethBalance) */\n      swap1\n      dup2\n      iszero\n      mul\n      swap1\n      mload(0x40)\n      0x00\n      mload(0x40)\n      dup1\n      dup4\n      sub\n      dup2\n      dup6\n      dup9\n      dup9\n      call\n      swap4\n      pop\n      pop\n      pop\n      pop\n      iszero\n      dup1\n      iszero\n      tag_70\n      jumpi\n      returndatasize\n      0x00\n      dup1\n      returndatacopy\n      revert(0x00, returndatasize)\n    tag_70:\n      pop\n        /* \"contracts/GameContract.sol\":2309:2391  if (ethBalance > 0) {... */\n    tag_67:\n        /* \"contracts/GameContract.sol\":2455:2456  0 */\n      0x00\n        /* \"contracts/GameContract.sol\":2442:2452  cz4Balance */\n      dup3\n        /* \"contracts/GameContract.sol\":2442:2456  cz4Balance > 0 */\n      gt\n        /* \"contracts/GameContract.sol\":2438:2525  if (cz4Balance > 0) {... */\n      iszero\n      tag_71\n      jumpi\n        /* \"contracts/GameContract.sol\":2472:2514  cz4Token.safeTransfer(owner(), cz4Balance) */\n      tag_72\n        /* \"contracts/GameContract.sol\":2494:2501  owner() */\n      tag_73\n        /* \"contracts/GameContract.sol\":2494:2499  owner */\n      tag_46\n        /* \"contracts/GameContract.sol\":2494:2501  owner() */\n      jump\t// in\n    tag_73:\n        /* \"contracts/GameContract.sol\":2503:2513  cz4Balance */\n      dup4\n        /* \"contracts/GameContract.sol\":2472:2480  cz4Token */\n      0x01\n      0x00\n      swap1\n      sload\n      swap1\n      0x0100\n      exp\n      swap1\n      div\n      0xffffffffffffffffffffffffffffffffffffffff\n      and\n        /* \"contracts/GameContract.sol\":2472:2493  cz4Token.safeTransfer */\n      0xffffffffffffffffffffffffffffffffffffffff\n      and\n      tag_74\n      swap1\n        /* \"contracts/GameContract.sol\":2472:2514  cz4Token.safeTransfer(owner(), cz4Balance) */\n      swap3\n      swap2\n      swap1\n      0xffffffff\n      and\n      jump\t// in\n    tag_72:\n        /* \"contracts/GameContract.sol\":2438:2525  if (cz4Balance > 0) {... */\n    tag_71:\n        /* \"contracts/GameContract.sol\":2591:2592  0 */\n      0x00\n        /* \"contracts/GameContract.sol\":2577:2588  fasuBalance */\n      dup2\n        /* \"contracts/GameContract.sol\":2577:2592  fasuBalance > 0 */\n      gt\n        /* \"contracts/GameContract.sol\":2573:2663  if (fasuBalance > 0) {... */\n      iszero\n      tag_75\n      jumpi\n        /* \"contracts/GameContract.sol\":2608:2652  fasuToken.safeTransfer(owner(), fasuBalance) */\n      tag_76\n        /* \"contracts/GameContract.sol\":2631:2638  owner() */\n      tag_77\n        /* \"contracts/GameContract.sol\":2631:2636  owner */\n      tag_46\n        /* \"contracts/GameContract.sol\":2631:2638  owner() */\n      jump\t// in\n    tag_77:\n        /* \"contracts/GameContract.sol\":2640:2651  fasuBalance */\n      dup3\n        /* \"contracts/GameContract.sol\":2608:2617  fasuToken */\n      0x02\n      0x00\n      swap1\n      sload\n      swap1\n      0x0100\n      exp\n      swap1\n      div\n      0xffffffffffffffffffffffffffffffffffffffff\n      and\n        /* \"contracts/GameContract.sol\":2608:2630  fasuToken.safeTransfer */\n      0xffffffffffffffffffffffffffffffffffffffff\n      and\n      tag_74\n      swap1\n        /* \"contracts/GameContract.sol\":2608:2652  fasuToken.safeTransfer(owner(), fasuBalance) */\n      swap3\n      swap2\n      swap1\n      0xffffffff\n      and\n      jump\t// in\n    tag_76:\n        /* \"contracts/GameContract.sol\":2573:2663  if (fasuBalance > 0) {... */\n    tag_75:\n        /* \"contracts/GameContract.sol\":2095:2669  {... */\n      pop\n      pop\n      pop\n        /* \"contracts/GameContract.sol\":2051:2669  function withdrawFunds() external onlyOwner {... */\n      jump\t// out\n        /* \"contracts/GameContract.sol\":985:1248  function addPrize(uint amount) external onlyOwner {... */\n    tag_27:\n        /* \"@openzeppelin/contracts/access/Ownable.sol\":1531:1544  _checkOwner() */\n      tag_79\n        /* \"@openzeppelin/contracts/access/Ownable.sol\":1531:1542  _checkOwner */\n      tag_56\n        /* \"@openzeppelin/contracts/access/Ownable.sol\":1531:1544  _checkOwner() */\n      jump\t// in\n    tag_79:\n        /* \"contracts/GameContract.sol\":1062:1063  0 */\n      0x00\n        /* \"contracts/GameContract.sol\":1053:1059  amount */\n      dup2\n        /* \"contracts/GameContract.sol\":1053:1063  amount > 0 */\n      gt\n        /* \"contracts/GameContract.sol\":1045:1106  require(amount > 0, \"Prize amount must be greater than zero\") */\n      tag_81\n      jumpi\n      mload(0x40)\n      0x08c379a000000000000000000000000000000000000000000000000000000000\n      dup2\n      mstore\n      0x04\n      add\n      tag_82\n      swap1\n      tag_83\n      jump\t// in\n    tag_82:\n      mload(0x40)\n      dup1\n      swap2\n      sub\n      swap1\n      revert\n    tag_81:\n        /* \"contracts/GameContract.sol\":1116:1176  cz4Token.safeTransferFrom(msg.sender, address(this), amount) */\n      tag_84\n        /* \"contracts/GameContract.sol\":1142:1152  msg.sender */\n      caller\n        /* \"contracts/GameContract.sol\":1162:1166  this */\n      address\n        /* \"contracts/GameContract.sol\":1169:1175  amount */\n      dup4\n        /* \"contracts/GameContract.sol\":1116:1124  cz4Token */\n      0x01\n      0x00\n      swap1\n      sload\n      swap1\n      0x0100\n      exp\n      swap1\n      div\n      0xffffffffffffffffffffffffffffffffffffffff\n      and\n        /* \"contracts/GameContract.sol\":1116:1141  cz4Token.safeTransferFrom */\n      0xffffffffffffffffffffffffffffffffffffffff\n      and\n      tag_85\n      swap1\n        /* \"contracts/GameContract.sol\":1116:1176  cz4Token.safeTransferFrom(msg.sender, address(this), amount) */\n      swap4\n      swap3\n      swap2\n      swap1\n      0xffffffff\n      and\n      jump\t// in\n    tag_84:\n        /* \"contracts/GameContract.sol\":1201:1207  amount */\n      dup1\n        /* \"contracts/GameContract.sol\":1186:1197  prizeAmount */\n      0x03\n      0x00\n        /* \"contracts/GameContract.sol\":1186:1207  prizeAmount += amount */\n      dup3\n      dup3\n      sload\n      tag_86\n      swap2\n      swap1\n      tag_87\n      jump\t// in\n    tag_86:\n      swap3\n      pop\n      pop\n      dup2\n      swap1\n      sstore\n      pop\n        /* \"contracts/GameContract.sol\":1223:1241  PrizeAdded(amount) */\n      0x7e4809669d29d4f60fc52cdc899ff62c77b16c6a3893532c483386afa590a271\n        /* \"contracts/GameContract.sol\":1234:1240  amount */\n      dup2\n        /* \"contracts/GameContract.sol\":1223:1241  PrizeAdded(amount) */\n      mload(0x40)\n      tag_88\n      swap2\n      swap1\n      tag_39\n      jump\t// in\n    tag_88:\n      mload(0x40)\n      dup1\n      swap2\n      sub\n      swap1\n      log1\n        /* \"contracts/GameContract.sol\":985:1248  function addPrize(uint amount) external onlyOwner {... */\n      pop\n      jump\t// out\n        /* \"contracts/GameContract.sol\":539:562  IERC20 public fasuToken */\n    tag_30:\n      0x02\n      0x00\n      swap1\n      sload\n      swap1\n      0x0100\n      exp\n      swap1\n      div\n      0xffffffffffffffffffffffffffffffffffffffff\n      and\n      dup2\n      jump\t// out\n        /* \"@openzeppelin/contracts/access/Ownable.sol\":2293:2394  function renounceOwnership() public virtual onlyOwner {... */\n    tag_34:\n        /* \"@openzeppelin/contracts/access/Ownable.sol\":1531:1544  _checkOwner() */\n      tag_90\n        /* \"@openzeppelin/contracts/access/Ownable.sol\":1531:1542  _checkOwner */\n      tag_56\n        /* \"@openzeppelin/contracts/access/Ownable.sol\":1531:1544  _checkOwner() */\n      jump\t// in\n    tag_90:\n        /* \"@openzeppelin/contracts/access/Ownable.sol\":2357:2387  _transferOwnership(address(0)) */\n      tag_92\n        /* \"@openzeppelin/contracts/access/Ownable.sol\":2384:2385  0 */\n      0x00\n        /* \"@openzeppelin/contracts/access/Ownable.sol\":2357:2375  _transferOwnership */\n      tag_93\n        /* \"@openzeppelin/contracts/access/Ownable.sol\":2357:2387  _transferOwnership(address(0)) */\n      jump\t// in\n    tag_92:\n        /* \"@openzeppelin/contracts/access/Ownable.sol\":2293:2394  function renounceOwnership() public virtual onlyOwner {... */\n      jump\t// out\n        /* \"contracts/GameContract.sol\":601:624  uint public prizeAmount */\n    tag_37:\n      sload(0x03)\n      dup2\n      jump\t// out\n        /* \"contracts/GameContract.sol\":1255:1984  function depositFASU(uint fasuAmount) external {... */\n    tag_43:\n        /* \"contracts/GameContract.sol\":1374:1375  0 */\n      0x00\n        /* \"contracts/GameContract.sol\":1361:1371  fasuAmount */\n      dup2\n        /* \"contracts/GameContract.sol\":1361:1375  fasuAmount > 0 */\n      gt\n        /* \"contracts/GameContract.sol\":1353:1420  require(fasuAmount > 0, \"Deposit amount must be greater than zero\") */\n      tag_95\n      jumpi\n      mload(0x40)\n      0x08c379a000000000000000000000000000000000000000000000000000000000\n      dup2\n      mstore\n      0x04\n      add\n      tag_96\n      swap1\n      tag_97\n      jump\t// in\n    tag_96:\n      mload(0x40)\n      dup1\n      swap2\n      sub\n      swap1\n      revert\n    tag_95:\n        /* \"contracts/GameContract.sol\":1452:1453  0 */\n      0x00\n        /* \"contracts/GameContract.sol\":1438:1449  prizeAmount */\n      sload(0x03)\n        /* \"contracts/GameContract.sol\":1438:1453  prizeAmount > 0 */\n      gt\n        /* \"contracts/GameContract.sol\":1430:1477  require(prizeAmount > 0, \"Prize pool is empty\") */\n      tag_98\n      jumpi\n      mload(0x40)\n      0x08c379a000000000000000000000000000000000000000000000000000000000\n      dup2\n      mstore\n      0x04\n      add\n      tag_99\n      swap1\n      tag_100\n      jump\t// in\n    tag_99:\n      mload(0x40)\n      dup1\n      swap2\n      sub\n      swap1\n      revert\n    tag_98:\n        /* \"contracts/GameContract.sol\":1488:1553  fasuToken.safeTransferFrom(msg.sender, address(this), fasuAmount) */\n      tag_101\n        /* \"contracts/GameContract.sol\":1515:1525  msg.sender */\n      caller\n        /* \"contracts/GameContract.sol\":1535:1539  this */\n      address\n        /* \"contracts/GameContract.sol\":1542:1552  fasuAmount */\n      dup4\n        /* \"contracts/GameContract.sol\":1488:1497  fasuToken */\n      0x02\n      0x00\n      swap1\n      sload\n      swap1\n      0x0100\n      exp\n      swap1\n      div\n      0xffffffffffffffffffffffffffffffffffffffff\n      and\n        /* \"contracts/GameContract.sol\":1488:1514  fasuToken.safeTransferFrom */\n      0xffffffffffffffffffffffffffffffffffffffff\n      and\n      tag_85\n      swap1\n        /* \"contracts/GameContract.sol\":1488:1553  fasuToken.safeTransferFrom(msg.sender, address(this), fasuAmount) */\n      swap4\n      swap3\n      swap2\n      swap1\n      0xffffffff\n      and\n      jump\t// in\n    tag_101:\n        /* \"contracts/GameContract.sol\":1572:1589  uint randomFactor */\n      0x00\n        /* \"contracts/GameContract.sol\":1681:1682  1 */\n      0x01\n        /* \"contracts/GameContract.sol\":1676:1677  5 */\n      0x05\n        /* \"contracts/GameContract.sol\":1625:1640  block.timestamp */\n      timestamp\n        /* \"contracts/GameContract.sol\":1642:1658  block.prevrandao */\n      prevrandao\n        /* \"contracts/GameContract.sol\":1660:1670  msg.sender */\n      caller\n        /* \"contracts/GameContract.sol\":1608:1671  abi.encodePacked(block.timestamp, block.prevrandao, msg.sender) */\n      add(0x20, mload(0x40))\n      tag_102\n      swap4\n      swap3\n      swap2\n      swap1\n      tag_103\n      jump\t// in\n    tag_102:\n      mload(0x40)\n      0x20\n      dup2\n      dup4\n      sub\n      sub\n      dup2\n      mstore\n      swap1\n      0x40\n      mstore\n        /* \"contracts/GameContract.sol\":1598:1672  keccak256(abi.encodePacked(block.timestamp, block.prevrandao, msg.sender)) */\n      dup1\n      mload\n      swap1\n      0x20\n      add\n      keccak256\n        /* \"contracts/GameContract.sol\":1593:1673  uint(keccak256(abi.encodePacked(block.timestamp, block.prevrandao, msg.sender))) */\n      0x00\n      shr\n        /* \"contracts/GameContract.sol\":1593:1677  uint(keccak256(abi.encodePacked(block.timestamp, block.prevrandao, msg.sender))) % 5 */\n      tag_104\n      swap2\n      swap1\n      tag_105\n      jump\t// in\n    tag_104:\n        /* \"contracts/GameContract.sol\":1592:1682  (uint(keccak256(abi.encodePacked(block.timestamp, block.prevrandao, msg.sender))) % 5) + 1 */\n      tag_106\n      swap2\n      swap1\n      tag_87\n      jump\t// in\n    tag_106:\n        /* \"contracts/GameContract.sol\":1572:1682  uint randomFactor = (uint(keccak256(abi.encodePacked(block.timestamp, block.prevrandao, msg.sender))) % 5) + 1 */\n      swap1\n      pop\n        /* \"contracts/GameContract.sol\":1692:1706  uint cz4Reward */\n      0x00\n        /* \"contracts/GameContract.sol\":1736:1748  randomFactor */\n      dup2\n        /* \"contracts/GameContract.sol\":1723:1732  1_000_000 */\n      0x0f4240\n        /* \"contracts/GameContract.sol\":1710:1720  fasuAmount */\n      dup5\n        /* \"contracts/GameContract.sol\":1710:1732  fasuAmount / 1_000_000 */\n      tag_107\n      swap2\n      swap1\n      tag_108\n      jump\t// in\n    tag_107:\n        /* \"contracts/GameContract.sol\":1709:1748  (fasuAmount / 1_000_000) * randomFactor */\n      tag_109\n      swap2\n      swap1\n      tag_110\n      jump\t// in\n    tag_109:\n        /* \"contracts/GameContract.sol\":1692:1748  uint cz4Reward = (fasuAmount / 1_000_000) * randomFactor */\n      swap1\n      pop\n        /* \"contracts/GameContract.sol\":1780:1791  prizeAmount */\n      sload(0x03)\n        /* \"contracts/GameContract.sol\":1767:1776  cz4Reward */\n      dup2\n        /* \"contracts/GameContract.sol\":1767:1791  cz4Reward <= prizeAmount */\n      gt\n      iszero\n        /* \"contracts/GameContract.sol\":1759:1824  require(cz4Reward <= prizeAmount, \"Not enough CZ4 in prize pool\") */\n      tag_111\n      jumpi\n      mload(0x40)\n      0x08c379a000000000000000000000000000000000000000000000000000000000\n      dup2\n      mstore\n      0x04\n      add\n      tag_112\n      swap1\n      tag_113\n      jump\t// in\n    tag_112:\n      mload(0x40)\n      dup1\n      swap2\n      sub\n      swap1\n      revert\n    tag_111:\n        /* \"contracts/GameContract.sol\":1849:1858  cz4Reward */\n      dup1\n        /* \"contracts/GameContract.sol\":1834:1845  prizeAmount */\n      0x03\n      0x00\n        /* \"contracts/GameContract.sol\":1834:1858  prizeAmount -= cz4Reward */\n      dup3\n      dup3\n      sload\n      tag_114\n      swap2\n      swap1\n      tag_115\n      jump\t// in\n    tag_114:\n      swap3\n      pop\n      pop\n      dup2\n      swap1\n      sstore\n      pop\n        /* \"contracts/GameContract.sol\":1869:1913  cz4Token.safeTransfer(msg.sender, cz4Reward) */\n      tag_116\n        /* \"contracts/GameContract.sol\":1891:1901  msg.sender */\n      caller\n        /* \"contracts/GameContract.sol\":1903:1912  cz4Reward */\n      dup3\n        /* \"contracts/GameContract.sol\":1869:1877  cz4Token */\n      0x01\n      0x00\n      swap1\n      sload\n      swap1\n      0x0100\n      exp\n      swap1\n      div\n      0xffffffffffffffffffffffffffffffffffffffff\n      and\n        /* \"contracts/GameContract.sol\":1869:1890  cz4Token.safeTransfer */\n      0xffffffffffffffffffffffffffffffffffffffff\n      and\n      tag_74\n      swap1\n        /* \"contracts/GameContract.sol\":1869:1913  cz4Token.safeTransfer(msg.sender, cz4Reward) */\n      swap3\n      swap2\n      swap1\n      0xffffffff\n      and\n      jump\t// in\n    tag_116:\n        /* \"contracts/GameContract.sol\":1943:1953  msg.sender */\n      caller\n        /* \"contracts/GameContract.sol\":1929:1977  FASUDeposited(msg.sender, fasuAmount, cz4Reward) */\n      0xffffffffffffffffffffffffffffffffffffffff\n      and\n      0x6dd63c9a34674245c3658d149ff4d640423eb11008c777a57783c3237d96ffcf\n        /* \"contracts/GameContract.sol\":1955:1965  fasuAmount */\n      dup5\n        /* \"contracts/GameContract.sol\":1967:1976  cz4Reward */\n      dup4\n        /* \"contracts/GameContract.sol\":1929:1977  FASUDeposited(msg.sender, fasuAmount, cz4Reward) */\n      mload(0x40)\n      tag_117\n      swap3\n      swap2\n      swap1\n      tag_118\n      jump\t// in\n    tag_117:\n      mload(0x40)\n      dup1\n      swap2\n      sub\n      swap1\n      log2\n        /* \"contracts/GameContract.sol\":1302:1984  {... */\n      pop\n      pop\n        /* \"contracts/GameContract.sol\":1255:1984  function depositFASU(uint fasuAmount) external {... */\n      pop\n      jump\t// out\n        /* \"@openzeppelin/contracts/access/Ownable.sol\":1638:1723  function owner() public view virtual returns (address) {... */\n    tag_46:\n        /* \"@openzeppelin/contracts/access/Ownable.sol\":1684:1691  address */\n      0x00\n        /* \"@openzeppelin/contracts/access/Ownable.sol\":1710:1716  _owner */\n      dup1\n      0x00\n      swap1\n      sload\n      swap1\n      0x0100\n      exp\n      swap1\n      div\n      0xffffffffffffffffffffffffffffffffffffffff\n      and\n        /* \"@openzeppelin/contracts/access/Ownable.sol\":1703:1716  return _owner */\n      swap1\n      pop\n        /* \"@openzeppelin/contracts/access/Ownable.sol\":1638:1723  function owner() public view virtual returns (address) {... */\n      swap1\n      jump\t// out\n        /* \"@openzeppelin/contracts/access/Ownable.sol\":2543:2758  function transferOwnership(address newOwner) public virtual onlyOwner {... */\n    tag_53:\n        /* \"@openzeppelin/contracts/access/Ownable.sol\":1531:1544  _checkOwner() */\n      tag_121\n        /* \"@openzeppelin/contracts/access/Ownable.sol\":1531:1542  _checkOwner */\n      tag_56\n        /* \"@openzeppelin/contracts/access/Ownable.sol\":1531:1544  _checkOwner() */\n      jump\t// in\n    tag_121:\n        /* \"@openzeppelin/contracts/access/Ownable.sol\":2647:2648  0 */\n      0x00\n        /* \"@openzeppelin/contracts/access/Ownable.sol\":2627:2649  newOwner == address(0) */\n      0xffffffffffffffffffffffffffffffffffffffff\n      and\n        /* \"@openzeppelin/contracts/access/Ownable.sol\":2627:2635  newOwner */\n      dup2\n        /* \"@openzeppelin/contracts/access/Ownable.sol\":2627:2649  newOwner == address(0) */\n      0xffffffffffffffffffffffffffffffffffffffff\n      and\n      sub\n        /* \"@openzeppelin/contracts/access/Ownable.sol\":2623:2714  if (newOwner == address(0)) {... */\n      tag_123\n      jumpi\n        /* \"@openzeppelin/contracts/access/Ownable.sol\":2700:2701  0 */\n      0x00\n        /* \"@openzeppelin/contracts/access/Ownable.sol\":2672:2703  OwnableInvalidOwner(address(0)) */\n      mload(0x40)\n      0x1e4fbdf700000000000000000000000000000000000000000000000000000000\n      dup2\n      mstore\n      0x04\n      add\n      tag_124\n      swap2\n      swap1\n      tag_48\n      jump\t// in\n    tag_124:\n      mload(0x40)\n      dup1\n      swap2\n      sub\n      swap1\n      revert\n        /* \"@openzeppelin/contracts/access/Ownable.sol\":2623:2714  if (newOwner == address(0)) {... */\n    tag_123:\n        /* \"@openzeppelin/contracts/access/Ownable.sol\":2723:2751  _transferOwnership(newOwner) */\n      tag_125\n        /* \"@openzeppelin/contracts/access/Ownable.sol\":2742:2750  newOwner */\n      dup2\n        /* \"@openzeppelin/contracts/access/Ownable.sol\":2723:2741  _transferOwnership */\n      tag_93\n        /* \"@openzeppelin/contracts/access/Ownable.sol\":2723:2751  _transferOwnership(newOwner) */\n      jump\t// in\n    tag_125:\n        /* \"@openzeppelin/contracts/access/Ownable.sol\":2543:2758  function transferOwnership(address newOwner) public virtual onlyOwner {... */\n      pop\n      jump\t// out\n        /* \"@openzeppelin/contracts/access/Ownable.sol\":1796:1958  function _checkOwner() internal view virtual {... */\n    tag_56:\n        /* \"@openzeppelin/contracts/access/Ownable.sol\":1866:1878  _msgSender() */\n      tag_127\n        /* \"@openzeppelin/contracts/access/Ownable.sol\":1866:1876  _msgSender */\n      tag_128\n        /* \"@openzeppelin/contracts/access/Ownable.sol\":1866:1878  _msgSender() */\n      jump\t// in\n    tag_127:\n        /* \"@openzeppelin/contracts/access/Ownable.sol\":1855:1878  owner() != _msgSender() */\n      0xffffffffffffffffffffffffffffffffffffffff\n      and\n        /* \"@openzeppelin/contracts/access/Ownable.sol\":1855:1862  owner() */\n      tag_129\n        /* \"@openzeppelin/contracts/access/Ownable.sol\":1855:1860  owner */\n      tag_46\n        /* \"@openzeppelin/contracts/access/Ownable.sol\":1855:1862  owner() */\n      jump\t// in\n    tag_129:\n        /* \"@openzeppelin/contracts/access/Ownable.sol\":1855:1878  owner() != _msgSender() */\n      0xffffffffffffffffffffffffffffffffffffffff\n      and\n      eq\n        /* \"@openzeppelin/contracts/access/Ownable.sol\":1851:1952  if (owner() != _msgSender()) {... */\n      tag_130\n      jumpi\n        /* \"@openzeppelin/contracts/access/Ownable.sol\":1928:1940  _msgSender() */\n      tag_131\n        /* \"@openzeppelin/contracts/access/Ownable.sol\":1928:1938  _msgSender */\n      tag_128\n        /* \"@openzeppelin/contracts/access/Ownable.sol\":1928:1940  _msgSender() */\n      jump\t// in\n    tag_131:\n        /* \"@openzeppelin/contracts/access/Ownable.sol\":1901:1941  OwnableUnauthorizedAccount(_msgSender()) */\n      mload(0x40)\n      0x118cdaa700000000000000000000000000000000000000000000000000000000\n      dup2\n      mstore\n      0x04\n      add\n      tag_132\n      swap2\n      swap1\n      tag_48\n      jump\t// in\n    tag_132:\n      mload(0x40)\n      dup1\n      swap2\n      sub\n      swap1\n      revert\n        /* \"@openzeppelin/contracts/access/Ownable.sol\":1851:1952  if (owner() != _msgSender()) {... */\n    tag_130:\n        /* \"@openzeppelin/contracts/access/Ownable.sol\":1796:1958  function _checkOwner() internal view virtual {... */\n      jump\t// out\n        /* \"@openzeppelin/contracts/token/ERC20/utils/SafeERC20.sol\":1271:1431  function safeTransfer(IERC20 token, address to, uint256 value) internal {... */\n    tag_74:\n        /* \"@openzeppelin/contracts/token/ERC20/utils/SafeERC20.sol\":1353:1424  _callOptionalReturn(token, abi.encodeCall(token.transfer, (to, value))) */\n      tag_134\n        /* \"@openzeppelin/contracts/token/ERC20/utils/SafeERC20.sol\":1373:1378  token */\n      dup4\n        /* \"@openzeppelin/contracts/token/ERC20/utils/SafeERC20.sol\":1395:1400  token */\n      dup5\n        /* \"@openzeppelin/contracts/token/ERC20/utils/SafeERC20.sol\":1395:1409  token.transfer */\n      0xffffffffffffffffffffffffffffffffffffffff\n      and\n      0xa9059cbb\n        /* \"@openzeppelin/contracts/token/ERC20/utils/SafeERC20.sol\":1412:1414  to */\n      dup6\n        /* \"@openzeppelin/contracts/token/ERC20/utils/SafeERC20.sol\":1416:1421  value */\n      dup6\n        /* \"@openzeppelin/contracts/token/ERC20/utils/SafeERC20.sol\":1380:1423  abi.encodeCall(token.transfer, (to, value)) */\n      add(0x24, mload(0x40))\n      tag_135\n      swap3\n      swap2\n      swap1\n      tag_136\n      jump\t// in\n    tag_135:\n      mload(0x40)\n      0x20\n      dup2\n      dup4\n      sub\n      sub\n      dup2\n      mstore\n      swap1\n      0x40\n      mstore\n      swap2\n      pop\n      0xe0\n      shl\n      0x20\n      dup3\n      add\n      dup1\n      mload\n      0xffffffffffffffffffffffffffffffffffffffffffffffffffffffff\n      dup4\n      dup2\n      dup4\n      and\n      or\n      dup4\n      mstore\n      pop\n      pop\n      pop\n      pop\n        /* \"@openzeppelin/contracts/token/ERC20/utils/SafeERC20.sol\":1353:1372  _callOptionalReturn */\n      tag_137\n        /* \"@openzeppelin/contracts/token/ERC20/utils/SafeERC20.sol\":1353:1424  _callOptionalReturn(token, abi.encodeCall(token.transfer, (to, value))) */\n      jump\t// in\n    tag_134:\n        /* \"@openzeppelin/contracts/token/ERC20/utils/SafeERC20.sol\":1271:1431  function safeTransfer(IERC20 token, address to, uint256 value) internal {... */\n      pop\n      pop\n      pop\n      jump\t// out\n        /* \"@openzeppelin/contracts/token/ERC20/utils/SafeERC20.sol\":1670:1858  function safeTransferFrom(IERC20 token, address from, address to, uint256 value) internal {... */\n    tag_85:\n        /* \"@openzeppelin/contracts/token/ERC20/utils/SafeERC20.sol\":1770:1851  _callOptionalReturn(token, abi.encodeCall(token.transferFrom, (from, to, value))) */\n      tag_139\n        /* \"@openzeppelin/contracts/token/ERC20/utils/SafeERC20.sol\":1790:1795  token */\n      dup5\n        /* \"@openzeppelin/contracts/token/ERC20/utils/SafeERC20.sol\":1812:1817  token */\n      dup6\n        /* \"@openzeppelin/contracts/token/ERC20/utils/SafeERC20.sol\":1812:1830  token.transferFrom */\n      0xffffffffffffffffffffffffffffffffffffffff\n      and\n      0x23b872dd\n        /* \"@openzeppelin/contracts/token/ERC20/utils/SafeERC20.sol\":1833:1837  from */\n      dup7\n        /* \"@openzeppelin/contracts/token/ERC20/utils/SafeERC20.sol\":1839:1841  to */\n      dup7\n        /* \"@openzeppelin/contracts/token/ERC20/utils/SafeERC20.sol\":1843:1848  value */\n      dup7\n        /* \"@openzeppelin/contracts/token/ERC20/utils/SafeERC20.sol\":1797:1850  abi.encodeCall(token.transferFrom, (from, to, value)) */\n      add(0x24, mload(0x40))\n      tag_140\n      swap4\n      swap3\n      swap2\n      swap1\n      tag_141\n      jump\t// in\n    tag_140:\n      mload(0x40)\n      0x20\n      dup2\n      dup4\n      sub\n      sub\n      dup2\n      mstore\n      swap1\n      0x40\n      mstore\n      swap2\n      pop\n      0xe0\n      shl\n      0x20\n      dup3\n      add\n      dup1\n      mload\n      0xffffffffffffffffffffffffffffffffffffffffffffffffffffffff\n      dup4\n      dup2\n      dup4\n      and\n      or\n      dup4\n      mstore\n      pop\n      pop\n      pop\n      pop\n        /* \"@openzeppelin/contracts/token/ERC20/utils/SafeERC20.sol\":1770:1789  _callOptionalReturn */\n      tag_137\n        /* \"@openzeppelin/contracts/token/ERC20/utils/SafeERC20.sol\":1770:1851  _callOptionalReturn(token, abi.encodeCall(token.transferFrom, (from, to, value))) */\n      jump\t// in\n    tag_139:\n        /* \"@openzeppelin/contracts/token/ERC20/utils/SafeERC20.sol\":1670:1858  function safeTransferFrom(IERC20 token, address from, address to, uint256 value) internal {... */\n      pop\n      pop\n      pop\n      pop\n      jump\t// out\n        /* \"@openzeppelin/contracts/access/Ownable.sol\":2912:3099  function _transferOwnership(address newOwner) internal virtual {... */\n    tag_93:\n        /* \"@openzeppelin/contracts/access/Ownable.sol\":2985:3001  address oldOwner */\n      0x00\n        /* \"@openzeppelin/contracts/access/Ownable.sol\":3004:3010  _owner */\n      dup1\n      0x00\n      swap1\n      sload\n      swap1\n      0x0100\n      exp\n      swap1\n      div\n      0xffffffffffffffffffffffffffffffffffffffff\n      and\n        /* \"@openzeppelin/contracts/access/Ownable.sol\":2985:3010  address oldOwner = _owner */\n      swap1\n      pop\n        /* \"@openzeppelin/contracts/access/Ownable.sol\":3029:3037  newOwner */\n      dup2\n        /* \"@openzeppelin/contracts/access/Ownable.sol\":3020:3026  _owner */\n      0x00\n      dup1\n        /* \"@openzeppelin/contracts/access/Ownable.sol\":3020:3037  _owner = newOwner */\n      0x0100\n      exp\n      dup2\n      sload\n      dup2\n      0xffffffffffffffffffffffffffffffffffffffff\n      mul\n      not\n      and\n      swap1\n      dup4\n      0xffffffffffffffffffffffffffffffffffffffff\n      and\n      mul\n      or\n      swap1\n      sstore\n      pop\n        /* \"@openzeppelin/contracts/access/Ownable.sol\":3083:3091  newOwner */\n      dup2\n        /* \"@openzeppelin/contracts/access/Ownable.sol\":3052:3092  OwnershipTransferred(oldOwner, newOwner) */\n      0xffffffffffffffffffffffffffffffffffffffff\n      and\n        /* \"@openzeppelin/contracts/access/Ownable.sol\":3073:3081  oldOwner */\n      dup2\n        /* \"@openzeppelin/contracts/access/Ownable.sol\":3052:3092  OwnershipTransferred(oldOwner, newOwner) */\n      0xffffffffffffffffffffffffffffffffffffffff\n      and\n      0x8be0079c531659141344cd1fd0a4f28419497f9722a3daafe3b4186f6b6457e0\n      mload(0x40)\n      mload(0x40)\n      dup1\n      swap2\n      sub\n      swap1\n      log3\n        /* \"@openzeppelin/contracts/access/Ownable.sol\":2975:3099  {... */\n      pop\n        /* \"@openzeppelin/contracts/access/Ownable.sol\":2912:3099  function _transferOwnership(address newOwner) internal virtual {... */\n      pop\n      jump\t// out\n        /* \"@openzeppelin/contracts/utils/Context.sol\":656:752  function _msgSender() internal view virtual returns (address) {... */\n    tag_128:\n        /* \"@openzeppelin/contracts/utils/Context.sol\":709:716  address */\n      0x00\n        /* \"@openzeppelin/contracts/utils/Context.sol\":735:745  msg.sender */\n      caller\n        /* \"@openzeppelin/contracts/utils/Context.sol\":728:745  return msg.sender */\n      swap1\n      pop\n        /* \"@openzeppelin/contracts/utils/Context.sol\":656:752  function _msgSender() internal view virtual returns (address) {... */\n      swap1\n      jump\t// out\n        /* \"@openzeppelin/contracts/token/ERC20/utils/SafeERC20.sol\":7738:8458  function _callOptionalReturn(IERC20 token, bytes memory data) private {... */\n    tag_137:\n        /* \"@openzeppelin/contracts/token/ERC20/utils/SafeERC20.sol\":7818:7836  uint256 returnSize */\n      0x00\n        /* \"@openzeppelin/contracts/token/ERC20/utils/SafeERC20.sol\":7846:7865  uint256 returnValue */\n      dup1\n        /* \"@openzeppelin/contracts/token/ERC20/utils/SafeERC20.sol\":7984:7988  0x20 */\n      0x20\n        /* \"@openzeppelin/contracts/token/ERC20/utils/SafeERC20.sol\":7981:7982  0 */\n      0x00\n        /* \"@openzeppelin/contracts/token/ERC20/utils/SafeERC20.sol\":7974:7978  data */\n      dup5\n        /* \"@openzeppelin/contracts/token/ERC20/utils/SafeERC20.sol\":7968:7979  mload(data) */\n      mload\n        /* \"@openzeppelin/contracts/token/ERC20/utils/SafeERC20.sol\":7961:7965  0x20 */\n      0x20\n        /* \"@openzeppelin/contracts/token/ERC20/utils/SafeERC20.sol\":7955:7959  data */\n      dup7\n        /* \"@openzeppelin/contracts/token/ERC20/utils/SafeERC20.sol\":7951:7966  add(data, 0x20) */\n      add\n        /* \"@openzeppelin/contracts/token/ERC20/utils/SafeERC20.sol\":7948:7949  0 */\n      0x00\n        /* \"@openzeppelin/contracts/token/ERC20/utils/SafeERC20.sol\":7941:7946  token */\n      dup9\n        /* \"@openzeppelin/contracts/token/ERC20/utils/SafeERC20.sol\":7934:7939  gas() */\n      gas\n        /* \"@openzeppelin/contracts/token/ERC20/utils/SafeERC20.sol\":7929:7989  call(gas(), token, 0, add(data, 0x20), mload(data), 0, 0x20) */\n      call\n        /* \"@openzeppelin/contracts/token/ERC20/utils/SafeERC20.sol\":8041:8048  success */\n      dup1\n        /* \"@openzeppelin/contracts/token/ERC20/utils/SafeERC20.sol\":8031:8207  if iszero(success) {... */\n      tag_145\n      jumpi\n        /* \"@openzeppelin/contracts/token/ERC20/utils/SafeERC20.sol\":8085:8089  0x40 */\n      0x40\n        /* \"@openzeppelin/contracts/token/ERC20/utils/SafeERC20.sol\":8079:8090  mload(0x40) */\n      mload\n        /* \"@openzeppelin/contracts/token/ERC20/utils/SafeERC20.sol\":8130:8146  returndatasize() */\n      returndatasize\n        /* \"@openzeppelin/contracts/token/ERC20/utils/SafeERC20.sol\":8127:8128  0 */\n      0x00\n        /* \"@openzeppelin/contracts/token/ERC20/utils/SafeERC20.sol\":8122:8125  ptr */\n      dup3\n        /* \"@openzeppelin/contracts/token/ERC20/utils/SafeERC20.sol\":8107:8147  returndatacopy(ptr, 0, returndatasize()) */\n      returndatacopy\n        /* \"@openzeppelin/contracts/token/ERC20/utils/SafeERC20.sol\":8176:8192  returndatasize() */\n      returndatasize\n        /* \"@openzeppelin/contracts/token/ERC20/utils/SafeERC20.sol\":8171:8174  ptr */\n      dup2\n        /* \"@openzeppelin/contracts/token/ERC20/utils/SafeERC20.sol\":8164:8193  revert(ptr, returndatasize()) */\n      revert\n        /* \"@openzeppelin/contracts/token/ERC20/utils/SafeERC20.sol\":8031:8207  if iszero(success) {... */\n    tag_145:\n        /* \"@openzeppelin/contracts/token/ERC20/utils/SafeERC20.sol\":8234:8250  returndatasize() */\n      returndatasize\n        /* \"@openzeppelin/contracts/token/ERC20/utils/SafeERC20.sol\":8220:8250  returnSize := returndatasize() */\n      swap3\n      pop\n        /* \"@openzeppelin/contracts/token/ERC20/utils/SafeERC20.sol\":8284:8285  0 */\n      0x00\n        /* \"@openzeppelin/contracts/token/ERC20/utils/SafeERC20.sol\":8278:8286  mload(0) */\n      mload\n        /* \"@openzeppelin/contracts/token/ERC20/utils/SafeERC20.sol\":8263:8286  returnValue := mload(0) */\n      swap2\n      pop\n        /* \"@openzeppelin/contracts/token/ERC20/utils/SafeERC20.sol\":7900:8296  {... */\n      pop\n        /* \"@openzeppelin/contracts/token/ERC20/utils/SafeERC20.sol\":8324:8325  0 */\n      0x00\n        /* \"@openzeppelin/contracts/token/ERC20/utils/SafeERC20.sol\":8310:8320  returnSize */\n      dup3\n        /* \"@openzeppelin/contracts/token/ERC20/utils/SafeERC20.sol\":8310:8325  returnSize == 0 */\n      eq\n        /* \"@openzeppelin/contracts/token/ERC20/utils/SafeERC20.sol\":8310:8378  returnSize == 0 ? address(token).code.length == 0 : returnValue != 1 */\n      tag_146\n      jumpi\n        /* \"@openzeppelin/contracts/token/ERC20/utils/SafeERC20.sol\":8377:8378  1 */\n      0x01\n        /* \"@openzeppelin/contracts/token/ERC20/utils/SafeERC20.sol\":8362:8373  returnValue */\n      dup2\n        /* \"@openzeppelin/contracts/token/ERC20/utils/SafeERC20.sol\":8362:8378  returnValue != 1 */\n      eq\n      iszero\n        /* \"@openzeppelin/contracts/token/ERC20/utils/SafeERC20.sol\":8310:8378  returnSize == 0 ? address(token).code.length == 0 : returnValue != 1 */\n      jump(tag_147)\n    tag_146:\n        /* \"@openzeppelin/contracts/token/ERC20/utils/SafeERC20.sol\":8358:8359  0 */\n      0x00\n        /* \"@openzeppelin/contracts/token/ERC20/utils/SafeERC20.sol\":8336:8341  token */\n      dup5\n        /* \"@openzeppelin/contracts/token/ERC20/utils/SafeERC20.sol\":8328:8354  address(token).code.length */\n      0xffffffffffffffffffffffffffffffffffffffff\n      and\n      extcodesize\n        /* \"@openzeppelin/contracts/token/ERC20/utils/SafeERC20.sol\":8328:8359  address(token).code.length == 0 */\n      eq\n        /* \"@openzeppelin/contracts/token/ERC20/utils/SafeERC20.sol\":8310:8378  returnSize == 0 ? address(token).code.length == 0 : returnValue != 1 */\n    tag_147:\n        /* \"@openzeppelin/contracts/token/ERC20/utils/SafeERC20.sol\":8306:8452  if (returnSize == 0 ? address(token).code.length == 0 : returnValue != 1) {... */\n      iszero\n      tag_148\n      jumpi\n        /* \"@openzeppelin/contracts/token/ERC20/utils/SafeERC20.sol\":8434:8439  token */\n      dup4\n        /* \"@openzeppelin/contracts/token/ERC20/utils/SafeERC20.sol\":8401:8441  SafeERC20FailedOperation(address(token)) */\n      mload(0x40)\n      0x5274afe700000000000000000000000000000000000000000000000000000000\n      dup2\n      mstore\n      0x04\n      add\n      tag_149\n      swap2\n      swap1\n      tag_48\n      jump\t// in\n    tag_149:\n      mload(0x40)\n      dup1\n      swap2\n      sub\n      swap1\n      revert\n        /* \"@openzeppelin/contracts/token/ERC20/utils/SafeERC20.sol\":8306:8452  if (returnSize == 0 ? address(token).code.length == 0 : returnValue != 1) {... */\n    tag_148:\n        /* \"@openzeppelin/contracts/token/ERC20/utils/SafeERC20.sol\":7808:8458  {... */\n      pop\n      pop\n        /* \"@openzeppelin/contracts/token/ERC20/utils/SafeERC20.sol\":7738:8458  function _callOptionalReturn(IERC20 token, bytes memory data) private {... */\n      pop\n      pop\n      jump\t// out\n        /* \"#utility.yul\":7:133   */\n    tag_150:\n        /* \"#utility.yul\":44:51   */\n      0x00\n        /* \"#utility.yul\":84:126   */\n      0xffffffffffffffffffffffffffffffffffffffff\n        /* \"#utility.yul\":77:82   */\n      dup3\n        /* \"#utility.yul\":73:127   */\n      and\n        /* \"#utility.yul\":62:127   */\n      swap1\n      pop\n        /* \"#utility.yul\":7:133   */\n      swap2\n      swap1\n      pop\n      jump\t// out\n        /* \"#utility.yul\":139:199   */\n    tag_151:\n        /* \"#utility.yul\":167:170   */\n      0x00\n        /* \"#utility.yul\":188:193   */\n      dup2\n        /* \"#utility.yul\":181:193   */\n      swap1\n      pop\n        /* \"#utility.yul\":139:199   */\n      swap2\n      swap1\n      pop\n      jump\t// out\n        /* \"#utility.yul\":205:347   */\n    tag_152:\n        /* \"#utility.yul\":255:264   */\n      0x00\n        /* \"#utility.yul\":288:341   */\n      tag_189\n        /* \"#utility.yul\":306:340   */\n      tag_190\n        /* \"#utility.yul\":315:339   */\n      tag_191\n        /* \"#utility.yul\":333:338   */\n      dup5\n        /* \"#utility.yul\":315:339   */\n      tag_150\n      jump\t// in\n    tag_191:\n        /* \"#utility.yul\":306:340   */\n      tag_151\n      jump\t// in\n    tag_190:\n        /* \"#utility.yul\":288:341   */\n      tag_150\n      jump\t// in\n    tag_189:\n        /* \"#utility.yul\":275:341   */\n      swap1\n      pop\n        /* \"#utility.yul\":205:347   */\n      swap2\n      swap1\n      pop\n      jump\t// out\n        /* \"#utility.yul\":353:479   */\n    tag_153:\n        /* \"#utility.yul\":403:412   */\n      0x00\n        /* \"#utility.yul\":436:473   */\n      tag_193\n        /* \"#utility.yul\":467:472   */\n      dup3\n        /* \"#utility.yul\":436:473   */\n      tag_152\n      jump\t// in\n    tag_193:\n        /* \"#utility.yul\":423:473   */\n      swap1\n      pop\n        /* \"#utility.yul\":353:479   */\n      swap2\n      swap1\n      pop\n      jump\t// out\n        /* \"#utility.yul\":485:625   */\n    tag_154:\n        /* \"#utility.yul\":549:558   */\n      0x00\n        /* \"#utility.yul\":582:619   */\n      tag_195\n        /* \"#utility.yul\":613:618   */\n      dup3\n        /* \"#utility.yul\":582:619   */\n      tag_153\n      jump\t// in\n    tag_195:\n        /* \"#utility.yul\":569:619   */\n      swap1\n      pop\n        /* \"#utility.yul\":485:625   */\n      swap2\n      swap1\n      pop\n      jump\t// out\n        /* \"#utility.yul\":631:790   */\n    tag_155:\n        /* \"#utility.yul\":732:783   */\n      tag_197\n        /* \"#utility.yul\":777:782   */\n      dup2\n        /* \"#utility.yul\":732:783   */\n      tag_154\n      jump\t// in\n    tag_197:\n        /* \"#utility.yul\":727:730   */\n      dup3\n        /* \"#utility.yul\":720:784   */\n      mstore\n        /* \"#utility.yul\":631:790   */\n      pop\n      pop\n      jump\t// out\n        /* \"#utility.yul\":796:1046   */\n    tag_19:\n        /* \"#utility.yul\":903:907   */\n      0x00\n        /* \"#utility.yul\":941:943   */\n      0x20\n        /* \"#utility.yul\":930:939   */\n      dup3\n        /* \"#utility.yul\":926:944   */\n      add\n        /* \"#utility.yul\":918:944   */\n      swap1\n      pop\n        /* \"#utility.yul\":954:1039   */\n      tag_199\n        /* \"#utility.yul\":1036:1037   */\n      0x00\n        /* \"#utility.yul\":1025:1034   */\n      dup4\n        /* \"#utility.yul\":1021:1038   */\n      add\n        /* \"#utility.yul\":1012:1018   */\n      dup5\n        /* \"#utility.yul\":954:1039   */\n      tag_155\n      jump\t// in\n    tag_199:\n        /* \"#utility.yul\":796:1046   */\n      swap3\n      swap2\n      pop\n      pop\n      jump\t// out\n        /* \"#utility.yul\":1133:1250   */\n    tag_157:\n        /* \"#utility.yul\":1242:1243   */\n      0x00\n        /* \"#utility.yul\":1239:1240   */\n      dup1\n        /* \"#utility.yul\":1232:1244   */\n      revert\n        /* \"#utility.yul\":1379:1456   */\n    tag_159:\n        /* \"#utility.yul\":1416:1423   */\n      0x00\n        /* \"#utility.yul\":1445:1450   */\n      dup2\n        /* \"#utility.yul\":1434:1450   */\n      swap1\n      pop\n        /* \"#utility.yul\":1379:1456   */\n      swap2\n      swap1\n      pop\n      jump\t// out\n        /* \"#utility.yul\":1462:1584   */\n    tag_160:\n        /* \"#utility.yul\":1535:1559   */\n      tag_205\n        /* \"#utility.yul\":1553:1558   */\n      dup2\n        /* \"#utility.yul\":1535:1559   */\n      tag_159\n      jump\t// in\n    tag_205:\n        /* \"#utility.yul\":1528:1533   */\n      dup2\n        /* \"#utility.yul\":1525:1560   */\n      eq\n        /* \"#utility.yul\":1515:1578   */\n      tag_206\n      jumpi\n        /* \"#utility.yul\":1574:1575   */\n      0x00\n        /* \"#utility.yul\":1571:1572   */\n      dup1\n        /* \"#utility.yul\":1564:1576   */\n      revert\n        /* \"#utility.yul\":1515:1578   */\n    tag_206:\n        /* \"#utility.yul\":1462:1584   */\n      pop\n      jump\t// out\n        /* \"#utility.yul\":1590:1729   */\n    tag_161:\n        /* \"#utility.yul\":1636:1641   */\n      0x00\n        /* \"#utility.yul\":1674:1680   */\n      dup2\n        /* \"#utility.yul\":1661:1681   */\n      calldataload\n        /* \"#utility.yul\":1652:1681   */\n      swap1\n      pop\n        /* \"#utility.yul\":1690:1723   */\n      tag_208\n        /* \"#utility.yul\":1717:1722   */\n      dup2\n        /* \"#utility.yul\":1690:1723   */\n      tag_160\n      jump\t// in\n    tag_208:\n        /* \"#utility.yul\":1590:1729   */\n      swap3\n      swap2\n      pop\n      pop\n      jump\t// out\n        /* \"#utility.yul\":1735:2064   */\n    tag_26:\n        /* \"#utility.yul\":1794:1800   */\n      0x00\n        /* \"#utility.yul\":1843:1845   */\n      0x20\n        /* \"#utility.yul\":1831:1840   */\n      dup3\n        /* \"#utility.yul\":1822:1829   */\n      dup5\n        /* \"#utility.yul\":1818:1841   */\n      sub\n        /* \"#utility.yul\":1814:1846   */\n      slt\n        /* \"#utility.yul\":1811:1930   */\n      iszero\n      tag_210\n      jumpi\n        /* \"#utility.yul\":1849:1928   */\n      tag_211\n      tag_157\n      jump\t// in\n    tag_211:\n        /* \"#utility.yul\":1811:1930   */\n    tag_210:\n        /* \"#utility.yul\":1969:1970   */\n      0x00\n        /* \"#utility.yul\":1994:2047   */\n      tag_212\n        /* \"#utility.yul\":2039:2046   */\n      dup5\n        /* \"#utility.yul\":2030:2036   */\n      dup3\n        /* \"#utility.yul\":2019:2028   */\n      dup6\n        /* \"#utility.yul\":2015:2037   */\n      add\n        /* \"#utility.yul\":1994:2047   */\n      tag_161\n      jump\t// in\n    tag_212:\n        /* \"#utility.yul\":1984:2047   */\n      swap2\n      pop\n        /* \"#utility.yul\":1940:2057   */\n      pop\n        /* \"#utility.yul\":1735:2064   */\n      swap3\n      swap2\n      pop\n      pop\n      jump\t// out\n        /* \"#utility.yul\":2070:2188   */\n    tag_162:\n        /* \"#utility.yul\":2157:2181   */\n      tag_214\n        /* \"#utility.yul\":2175:2180   */\n      dup2\n        /* \"#utility.yul\":2157:2181   */\n      tag_159\n      jump\t// in\n    tag_214:\n        /* \"#utility.yul\":2152:2155   */\n      dup3\n        /* \"#utility.yul\":2145:2182   */\n      mstore\n        /* \"#utility.yul\":2070:2188   */\n      pop\n      pop\n      jump\t// out\n        /* \"#utility.yul\":2194:2416   */\n    tag_39:\n        /* \"#utility.yul\":2287:2291   */\n      0x00\n        /* \"#utility.yul\":2325:2327   */\n      0x20\n        /* \"#utility.yul\":2314:2323   */\n      dup3\n        /* \"#utility.yul\":2310:2328   */\n      add\n        /* \"#utility.yul\":2302:2328   */\n      swap1\n      pop\n        /* \"#utility.yul\":2338:2409   */\n      tag_216\n        /* \"#utility.yul\":2406:2407   */\n      0x00\n        /* \"#utility.yul\":2395:2404   */\n      dup4\n        /* \"#utility.yul\":2391:2408   */\n      add\n        /* \"#utility.yul\":2382:2388   */\n      dup5\n        /* \"#utility.yul\":2338:2409   */\n      tag_162\n      jump\t// in\n    tag_216:\n        /* \"#utility.yul\":2194:2416   */\n      swap3\n      swap2\n      pop\n      pop\n      jump\t// out\n        /* \"#utility.yul\":2422:2518   */\n    tag_163:\n        /* \"#utility.yul\":2459:2466   */\n      0x00\n        /* \"#utility.yul\":2488:2512   */\n      tag_218\n        /* \"#utility.yul\":2506:2511   */\n      dup3\n        /* \"#utility.yul\":2488:2512   */\n      tag_150\n      jump\t// in\n    tag_218:\n        /* \"#utility.yul\":2477:2512   */\n      swap1\n      pop\n        /* \"#utility.yul\":2422:2518   */\n      swap2\n      swap1\n      pop\n      jump\t// out\n        /* \"#utility.yul\":2524:2642   */\n    tag_164:\n        /* \"#utility.yul\":2611:2635   */\n      tag_220\n        /* \"#utility.yul\":2629:2634   */\n      dup2\n        /* \"#utility.yul\":2611:2635   */\n      tag_163\n      jump\t// in\n    tag_220:\n        /* \"#utility.yul\":2606:2609   */\n      dup3\n        /* \"#utility.yul\":2599:2636   */\n      mstore\n        /* \"#utility.yul\":2524:2642   */\n      pop\n      pop\n      jump\t// out\n        /* \"#utility.yul\":2648:2870   */\n    tag_48:\n        /* \"#utility.yul\":2741:2745   */\n      0x00\n        /* \"#utility.yul\":2779:2781   */\n      0x20\n        /* \"#utility.yul\":2768:2777   */\n      dup3\n        /* \"#utility.yul\":2764:2782   */\n      add\n        /* \"#utility.yul\":2756:2782   */\n      swap1\n      pop\n        /* \"#utility.yul\":2792:2863   */\n      tag_222\n        /* \"#utility.yul\":2860:2861   */\n      0x00\n        /* \"#utility.yul\":2849:2858   */\n      dup4\n        /* \"#utility.yul\":2845:2862   */\n      add\n        /* \"#utility.yul\":2836:2842   */\n      dup5\n        /* \"#utility.yul\":2792:2863   */\n      tag_164\n      jump\t// in\n    tag_222:\n        /* \"#utility.yul\":2648:2870   */\n      swap3\n      swap2\n      pop\n      pop\n      jump\t// out\n        /* \"#utility.yul\":2876:2998   */\n    tag_165:\n        /* \"#utility.yul\":2949:2973   */\n      tag_224\n        /* \"#utility.yul\":2967:2972   */\n      dup2\n        /* \"#utility.yul\":2949:2973   */\n      tag_163\n      jump\t// in\n    tag_224:\n        /* \"#utility.yul\":2942:2947   */\n      dup2\n        /* \"#utility.yul\":2939:2974   */\n      eq\n        /* \"#utility.yul\":2929:2992   */\n      tag_225\n      jumpi\n        /* \"#utility.yul\":2988:2989   */\n      0x00\n        /* \"#utility.yul\":2985:2986   */\n      dup1\n        /* \"#utility.yul\":2978:2990   */\n      revert\n        /* \"#utility.yul\":2929:2992   */\n    tag_225:\n        /* \"#utility.yul\":2876:2998   */\n      pop\n      jump\t// out\n        /* \"#utility.yul\":3004:3143   */\n    tag_166:\n        /* \"#utility.yul\":3050:3055   */\n      0x00\n        /* \"#utility.yul\":3088:3094   */\n      dup2\n        /* \"#utility.yul\":3075:3095   */\n      calldataload\n        /* \"#utility.yul\":3066:3095   */\n      swap1\n      pop\n        /* \"#utility.yul\":3104:3137   */\n      tag_227\n        /* \"#utility.yul\":3131:3136   */\n      dup2\n        /* \"#utility.yul\":3104:3137   */\n      tag_165\n      jump\t// in\n    tag_227:\n        /* \"#utility.yul\":3004:3143   */\n      swap3\n      swap2\n      pop\n      pop\n      jump\t// out\n        /* \"#utility.yul\":3149:3478   */\n    tag_52:\n        /* \"#utility.yul\":3208:3214   */\n      0x00\n        /* \"#utility.yul\":3257:3259   */\n      0x20\n        /* \"#utility.yul\":3245:3254   */\n      dup3\n        /* \"#utility.yul\":3236:3243   */\n      dup5\n        /* \"#utility.yul\":3232:3255   */\n      sub\n        /* \"#utility.yul\":3228:3260   */\n      slt\n        /* \"#utility.yul\":3225:3344   */\n      iszero\n      tag_229\n      jumpi\n        /* \"#utility.yul\":3263:3342   */\n      tag_230\n      tag_157\n      jump\t// in\n    tag_230:\n        /* \"#utility.yul\":3225:3344   */\n    tag_229:\n        /* \"#utility.yul\":3383:3384   */\n      0x00\n        /* \"#utility.yul\":3408:3461   */\n      tag_231\n        /* \"#utility.yul\":3453:3460   */\n      dup5\n        /* \"#utility.yul\":3444:3450   */\n      dup3\n        /* \"#utility.yul\":3433:3442   */\n      dup6\n        /* \"#utility.yul\":3429:3451   */\n      add\n        /* \"#utility.yul\":3408:3461   */\n      tag_166\n      jump\t// in\n    tag_231:\n        /* \"#utility.yul\":3398:3461   */\n      swap2\n      pop\n        /* \"#utility.yul\":3354:3471   */\n      pop\n        /* \"#utility.yul\":3149:3478   */\n      swap3\n      swap2\n      pop\n      pop\n      jump\t// out\n        /* \"#utility.yul\":3484:3627   */\n    tag_167:\n        /* \"#utility.yul\":3541:3546   */\n      0x00\n        /* \"#utility.yul\":3572:3578   */\n      dup2\n        /* \"#utility.yul\":3566:3579   */\n      mload\n        /* \"#utility.yul\":3557:3579   */\n      swap1\n      pop\n        /* \"#utility.yul\":3588:3621   */\n      tag_233\n        /* \"#utility.yul\":3615:3620   */\n      dup2\n        /* \"#utility.yul\":3588:3621   */\n      tag_160\n      jump\t// in\n    tag_233:\n        /* \"#utility.yul\":3484:3627   */\n      swap3\n      swap2\n      pop\n      pop\n      jump\t// out\n        /* \"#utility.yul\":3633:3984   */\n    tag_62:\n        /* \"#utility.yul\":3703:3709   */\n      0x00\n        /* \"#utility.yul\":3752:3754   */\n      0x20\n        /* \"#utility.yul\":3740:3749   */\n      dup3\n        /* \"#utility.yul\":3731:3738   */\n      dup5\n        /* \"#utility.yul\":3727:3750   */\n      sub\n        /* \"#utility.yul\":3723:3755   */\n      slt\n        /* \"#utility.yul\":3720:3839   */\n      iszero\n      tag_235\n      jumpi\n        /* \"#utility.yul\":3758:3837   */\n      tag_236\n      tag_157\n      jump\t// in\n    tag_236:\n        /* \"#utility.yul\":3720:3839   */\n    tag_235:\n        /* \"#utility.yul\":3878:3879   */\n      0x00\n        /* \"#utility.yul\":3903:3967   */\n      tag_237\n        /* \"#utility.yul\":3959:3966   */\n      dup5\n        /* \"#utility.yul\":3950:3956   */\n      dup3\n        /* \"#utility.yul\":3939:3948   */\n      dup6\n        /* \"#utility.yul\":3935:3957   */\n      add\n        /* \"#utility.yul\":3903:3967   */\n      tag_167\n      jump\t// in\n    tag_237:\n        /* \"#utility.yul\":3893:3967   */\n      swap2\n      pop\n        /* \"#utility.yul\":3849:3977   */\n      pop\n        /* \"#utility.yul\":3633:3984   */\n      swap3\n      swap2\n      pop\n      pop\n      jump\t// out\n        /* \"#utility.yul\":3990:4159   */\n    tag_168:\n        /* \"#utility.yul\":4074:4085   */\n      0x00\n        /* \"#utility.yul\":4108:4114   */\n      dup3\n        /* \"#utility.yul\":4103:4106   */\n      dup3\n        /* \"#utility.yul\":4096:4115   */\n      mstore\n        /* \"#utility.yul\":4148:4152   */\n      0x20\n        /* \"#utility.yul\":4143:4146   */\n      dup3\n        /* \"#utility.yul\":4139:4153   */\n      add\n        /* \"#utility.yul\":4124:4153   */\n      swap1\n      pop\n        /* \"#utility.yul\":3990:4159   */\n      swap3\n      swap2\n      pop\n      pop\n      jump\t// out\n        /* \"#utility.yul\":4165:4390   */\n    tag_169:\n        /* \"#utility.yul\":4305:4339   */\n      0x5072697a6520616d6f756e74206d757374206265206772656174657220746861\n        /* \"#utility.yul\":4301:4302   */\n      0x00\n        /* \"#utility.yul\":4293:4299   */\n      dup3\n        /* \"#utility.yul\":4289:4303   */\n      add\n        /* \"#utility.yul\":4282:4340   */\n      mstore\n        /* \"#utility.yul\":4374:4382   */\n      0x6e207a65726f0000000000000000000000000000000000000000000000000000\n        /* \"#utility.yul\":4369:4371   */\n      0x20\n        /* \"#utility.yul\":4361:4367   */\n      dup3\n        /* \"#utility.yul\":4357:4372   */\n      add\n        /* \"#utility.yul\":4350:4383   */\n      mstore\n        /* \"#utility.yul\":4165:4390   */\n      pop\n      jump\t// out\n        /* \"#utility.yul\":4396:4762   */\n    tag_170:\n        /* \"#utility.yul\":4538:4541   */\n      0x00\n        /* \"#utility.yul\":4559:4626   */\n      tag_241\n        /* \"#utility.yul\":4623:4625   */\n      0x26\n        /* \"#utility.yul\":4618:4621   */\n      dup4\n        /* \"#utility.yul\":4559:4626   */\n      tag_168\n      jump\t// in\n    tag_241:\n        /* \"#utility.yul\":4552:4626   */\n      swap2\n      pop\n        /* \"#utility.yul\":4635:4728   */\n      tag_242\n        /* \"#utility.yul\":4724:4727   */\n      dup3\n        /* \"#utility.yul\":4635:4728   */\n      tag_169\n      jump\t// in\n    tag_242:\n        /* \"#utility.yul\":4753:4755   */\n      0x40\n        /* \"#utility.yul\":4748:4751   */\n      dup3\n        /* \"#utility.yul\":4744:4756   */\n      add\n        /* \"#utility.yul\":4737:4756   */\n      swap1\n      pop\n        /* \"#utility.yul\":4396:4762   */\n      swap2\n      swap1\n      pop\n      jump\t// out\n        /* \"#utility.yul\":4768:5187   */\n    tag_83:\n        /* \"#utility.yul\":4934:4938   */\n      0x00\n        /* \"#utility.yul\":4972:4974   */\n      0x20\n        /* \"#utility.yul\":4961:4970   */\n      dup3\n        /* \"#utility.yul\":4957:4975   */\n      add\n        /* \"#utility.yul\":4949:4975   */\n      swap1\n      pop\n        /* \"#utility.yul\":5021:5030   */\n      dup2\n        /* \"#utility.yul\":5015:5019   */\n      dup2\n        /* \"#utility.yul\":5011:5031   */\n      sub\n        /* \"#utility.yul\":5007:5008   */\n      0x00\n        /* \"#utility.yul\":4996:5005   */\n      dup4\n        /* \"#utility.yul\":4992:5009   */\n      add\n        /* \"#utility.yul\":4985:5032   */\n      mstore\n        /* \"#utility.yul\":5049:5180   */\n      tag_244\n        /* \"#utility.yul\":5175:5179   */\n      dup2\n        /* \"#utility.yul\":5049:5180   */\n      tag_170\n      jump\t// in\n    tag_244:\n        /* \"#utility.yul\":5041:5180   */\n      swap1\n      pop\n        /* \"#utility.yul\":4768:5187   */\n      swap2\n      swap1\n      pop\n      jump\t// out\n        /* \"#utility.yul\":5193:5373   */\n    tag_171:\n        /* \"#utility.yul\":5241:5318   */\n      0x4e487b7100000000000000000000000000000000000000000000000000000000\n        /* \"#utility.yul\":5238:5239   */\n      0x00\n        /* \"#utility.yul\":5231:5319   */\n      mstore\n        /* \"#utility.yul\":5338:5342   */\n      0x11\n        /* \"#utility.yul\":5335:5336   */\n      0x04\n        /* \"#utility.yul\":5328:5343   */\n      mstore\n        /* \"#utility.yul\":5362:5366   */\n      0x24\n        /* \"#utility.yul\":5359:5360   */\n      0x00\n        /* \"#utility.yul\":5352:5367   */\n      revert\n        /* \"#utility.yul\":5379:5570   */\n    tag_87:\n        /* \"#utility.yul\":5419:5422   */\n      0x00\n        /* \"#utility.yul\":5438:5458   */\n      tag_247\n        /* \"#utility.yul\":5456:5457   */\n      dup3\n        /* \"#utility.yul\":5438:5458   */\n      tag_159\n      jump\t// in\n    tag_247:\n        /* \"#utility.yul\":5433:5458   */\n      swap2\n      pop\n        /* \"#utility.yul\":5472:5492   */\n      tag_248\n        /* \"#utility.yul\":5490:5491   */\n      dup4\n        /* \"#utility.yul\":5472:5492   */\n      tag_159\n      jump\t// in\n    tag_248:\n        /* \"#utility.yul\":5467:5492   */\n      swap3\n      pop\n        /* \"#utility.yul\":5515:5516   */\n      dup3\n        /* \"#utility.yul\":5512:5513   */\n      dup3\n        /* \"#utility.yul\":5508:5517   */\n      add\n        /* \"#utility.yul\":5501:5517   */\n      swap1\n      pop\n        /* \"#utility.yul\":5536:5539   */\n      dup1\n        /* \"#utility.yul\":5533:5534   */\n      dup3\n        /* \"#utility.yul\":5530:5540   */\n      gt\n        /* \"#utility.yul\":5527:5563   */\n      iszero\n      tag_249\n      jumpi\n        /* \"#utility.yul\":5543:5561   */\n      tag_250\n      tag_171\n      jump\t// in\n    tag_250:\n        /* \"#utility.yul\":5527:5563   */\n    tag_249:\n        /* \"#utility.yul\":5379:5570   */\n      swap3\n      swap2\n      pop\n      pop\n      jump\t// out\n        /* \"#utility.yul\":5576:5803   */\n    tag_172:\n        /* \"#utility.yul\":5716:5750   */\n      0x4465706f73697420616d6f756e74206d75737420626520677265617465722074\n        /* \"#utility.yul\":5712:5713   */\n      0x00\n        /* \"#utility.yul\":5704:5710   */\n      dup3\n        /* \"#utility.yul\":5700:5714   */\n      add\n        /* \"#utility.yul\":5693:5751   */\n      mstore\n        /* \"#utility.yul\":5785:5795   */\n      0x68616e207a65726f000000000000000000000000000000000000000000000000\n        /* \"#utility.yul\":5780:5782   */\n      0x20\n        /* \"#utility.yul\":5772:5778   */\n      dup3\n        /* \"#utility.yul\":5768:5783   */\n      add\n        /* \"#utility.yul\":5761:5796   */\n      mstore\n        /* \"#utility.yul\":5576:5803   */\n      pop\n      jump\t// out\n        /* \"#utility.yul\":5809:6175   */\n    tag_173:\n        /* \"#utility.yul\":5951:5954   */\n      0x00\n        /* \"#utility.yul\":5972:6039   */\n      tag_253\n        /* \"#utility.yul\":6036:6038   */\n      0x28\n        /* \"#utility.yul\":6031:6034   */\n      dup4\n        /* \"#utility.yul\":5972:6039   */\n      tag_168\n      jump\t// in\n    tag_253:\n        /* \"#utility.yul\":5965:6039   */\n      swap2\n      pop\n        /* \"#utility.yul\":6048:6141   */\n      tag_254\n        /* \"#utility.yul\":6137:6140   */\n      dup3\n        /* \"#utility.yul\":6048:6141   */\n      tag_172\n      jump\t// in\n    tag_254:\n        /* \"#utility.yul\":6166:6168   */\n      0x40\n        /* \"#utility.yul\":6161:6164   */\n      dup3\n        /* \"#utility.yul\":6157:6169   */\n      add\n        /* \"#utility.yul\":6150:6169   */\n      swap1\n      pop\n        /* \"#utility.yul\":5809:6175   */\n      swap2\n      swap1\n      pop\n      jump\t// out\n        /* \"#utility.yul\":6181:6600   */\n    tag_97:\n        /* \"#utility.yul\":6347:6351   */\n      0x00\n        /* \"#utility.yul\":6385:6387   */\n      0x20\n        /* \"#utility.yul\":6374:6383   */\n      dup3\n        /* \"#utility.yul\":6370:6388   */\n      add\n        /* \"#utility.yul\":6362:6388   */\n      swap1\n      pop\n        /* \"#utility.yul\":6434:6443   */\n      dup2\n        /* \"#utility.yul\":6428:6432   */\n      dup2\n        /* \"#utility.yul\":6424:6444   */\n      sub\n        /* \"#utility.yul\":6420:6421   */\n      0x00\n        /* \"#utility.yul\":6409:6418   */\n      dup4\n        /* \"#utility.yul\":6405:6422   */\n      add\n        /* \"#utility.yul\":6398:6445   */\n      mstore\n        /* \"#utility.yul\":6462:6593   */\n      tag_256\n        /* \"#utility.yul\":6588:6592   */\n      dup2\n        /* \"#utility.yul\":6462:6593   */\n      tag_173\n      jump\t// in\n    tag_256:\n        /* \"#utility.yul\":6454:6593   */\n      swap1\n      pop\n        /* \"#utility.yul\":6181:6600   */\n      swap2\n      swap1\n      pop\n      jump\t// out\n        /* \"#utility.yul\":6606:6775   */\n    tag_174:\n        /* \"#utility.yul\":6746:6767   */\n      0x5072697a6520706f6f6c20697320656d70747900000000000000000000000000\n        /* \"#utility.yul\":6742:6743   */\n      0x00\n        /* \"#utility.yul\":6734:6740   */\n      dup3\n        /* \"#utility.yul\":6730:6744   */\n      add\n        /* \"#utility.yul\":6723:6768   */\n      mstore\n        /* \"#utility.yul\":6606:6775   */\n      pop\n      jump\t// out\n        /* \"#utility.yul\":6781:7147   */\n    tag_175:\n        /* \"#utility.yul\":6923:6926   */\n      0x00\n        /* \"#utility.yul\":6944:7011   */\n      tag_259\n        /* \"#utility.yul\":7008:7010   */\n      0x13\n        /* \"#utility.yul\":7003:7006   */\n      dup4\n        /* \"#utility.yul\":6944:7011   */\n      tag_168\n      jump\t// in\n    tag_259:\n        /* \"#utility.yul\":6937:7011   */\n      swap2\n      pop\n        /* \"#utility.yul\":7020:7113   */\n      tag_260\n        /* \"#utility.yul\":7109:7112   */\n      dup3\n        /* \"#utility.yul\":7020:7113   */\n      tag_174\n      jump\t// in\n    tag_260:\n        /* \"#utility.yul\":7138:7140   */\n      0x20\n        /* \"#utility.yul\":7133:7136   */\n      dup3\n        /* \"#utility.yul\":7129:7141   */\n      add\n        /* \"#utility.yul\":7122:7141   */\n      swap1\n      pop\n        /* \"#utility.yul\":6781:7147   */\n      swap2\n      swap1\n      pop\n      jump\t// out\n        /* \"#utility.yul\":7153:7572   */\n    tag_100:\n        /* \"#utility.yul\":7319:7323   */\n      0x00\n        /* \"#utility.yul\":7357:7359   */\n      0x20\n        /* \"#utility.yul\":7346:7355   */\n      dup3\n        /* \"#utility.yul\":7342:7360   */\n      add\n        /* \"#utility.yul\":7334:7360   */\n      swap1\n      pop\n        /* \"#utility.yul\":7406:7415   */\n      dup2\n        /* \"#utility.yul\":7400:7404   */\n      dup2\n        /* \"#utility.yul\":7396:7416   */\n      sub\n        /* \"#utility.yul\":7392:7393   */\n      0x00\n        /* \"#utility.yul\":7381:7390   */\n      dup4\n        /* \"#utility.yul\":7377:7394   */\n      add\n        /* \"#utility.yul\":7370:7417   */\n      mstore\n        /* \"#utility.yul\":7434:7565   */\n      tag_262\n        /* \"#utility.yul\":7560:7564   */\n      dup2\n        /* \"#utility.yul\":7434:7565   */\n      tag_175\n      jump\t// in\n    tag_262:\n        /* \"#utility.yul\":7426:7565   */\n      swap1\n      pop\n        /* \"#utility.yul\":7153:7572   */\n      swap2\n      swap1\n      pop\n      jump\t// out\n        /* \"#utility.yul\":7578:7657   */\n    tag_176:\n        /* \"#utility.yul\":7617:7624   */\n      0x00\n        /* \"#utility.yul\":7646:7651   */\n      dup2\n        /* \"#utility.yul\":7635:7651   */\n      swap1\n      pop\n        /* \"#utility.yul\":7578:7657   */\n      swap2\n      swap1\n      pop\n      jump\t// out\n        /* \"#utility.yul\":7663:7820   */\n    tag_177:\n        /* \"#utility.yul\":7768:7813   */\n      tag_265\n        /* \"#utility.yul\":7788:7812   */\n      tag_266\n        /* \"#utility.yul\":7806:7811   */\n      dup3\n        /* \"#utility.yul\":7788:7812   */\n      tag_159\n      jump\t// in\n    tag_266:\n        /* \"#utility.yul\":7768:7813   */\n      tag_176\n      jump\t// in\n    tag_265:\n        /* \"#utility.yul\":7763:7766   */\n      dup3\n        /* \"#utility.yul\":7756:7814   */\n      mstore\n        /* \"#utility.yul\":7663:7820   */\n      pop\n      pop\n      jump\t// out\n        /* \"#utility.yul\":7826:7920   */\n    tag_178:\n        /* \"#utility.yul\":7859:7867   */\n      0x00\n        /* \"#utility.yul\":7907:7912   */\n      dup2\n        /* \"#utility.yul\":7903:7905   */\n      0x60\n        /* \"#utility.yul\":7899:7913   */\n      shl\n        /* \"#utility.yul\":7878:7913   */\n      swap1\n      pop\n        /* \"#utility.yul\":7826:7920   */\n      swap2\n      swap1\n      pop\n      jump\t// out\n        /* \"#utility.yul\":7926:8020   */\n    tag_179:\n        /* \"#utility.yul\":7965:7972   */\n      0x00\n        /* \"#utility.yul\":7994:8014   */\n      tag_269\n        /* \"#utility.yul\":8008:8013   */\n      dup3\n        /* \"#utility.yul\":7994:8014   */\n      tag_178\n      jump\t// in\n    tag_269:\n        /* \"#utility.yul\":7983:8014   */\n      swap1\n      pop\n        /* \"#utility.yul\":7926:8020   */\n      swap2\n      swap1\n      pop\n      jump\t// out\n        /* \"#utility.yul\":8026:8126   */\n    tag_180:\n        /* \"#utility.yul\":8065:8072   */\n      0x00\n        /* \"#utility.yul\":8094:8120   */\n      tag_271\n        /* \"#utility.yul\":8114:8119   */\n      dup3\n        /* \"#utility.yul\":8094:8120   */\n      tag_179\n      jump\t// in\n    tag_271:\n        /* \"#utility.yul\":8083:8120   */\n      swap1\n      pop\n        /* \"#utility.yul\":8026:8126   */\n      swap2\n      swap1\n      pop\n      jump\t// out\n        /* \"#utility.yul\":8132:8289   */\n    tag_181:\n        /* \"#utility.yul\":8237:8282   */\n      tag_273\n        /* \"#utility.yul\":8257:8281   */\n      tag_274\n        /* \"#utility.yul\":8275:8280   */\n      dup3\n        /* \"#utility.yul\":8257:8281   */\n      tag_163\n      jump\t// in\n    tag_274:\n        /* \"#utility.yul\":8237:8282   */\n      tag_180\n      jump\t// in\n    tag_273:\n        /* \"#utility.yul\":8232:8235   */\n      dup3\n        /* \"#utility.yul\":8225:8283   */\n      mstore\n        /* \"#utility.yul\":8132:8289   */\n      pop\n      pop\n      jump\t// out\n        /* \"#utility.yul\":8295:8833   */\n    tag_103:\n        /* \"#utility.yul\":8463:8466   */\n      0x00\n        /* \"#utility.yul\":8478:8553   */\n      tag_276\n        /* \"#utility.yul\":8549:8552   */\n      dup3\n        /* \"#utility.yul\":8540:8546   */\n      dup7\n        /* \"#utility.yul\":8478:8553   */\n      tag_177\n      jump\t// in\n    tag_276:\n        /* \"#utility.yul\":8578:8580   */\n      0x20\n        /* \"#utility.yul\":8573:8576   */\n      dup3\n        /* \"#utility.yul\":8569:8581   */\n      add\n        /* \"#utility.yul\":8562:8581   */\n      swap2\n      pop\n        /* \"#utility.yul\":8591:8666   */\n      tag_277\n        /* \"#utility.yul\":8662:8665   */\n      dup3\n        /* \"#utility.yul\":8653:8659   */\n      dup6\n        /* \"#utility.yul\":8591:8666   */\n      tag_177\n      jump\t// in\n    tag_277:\n        /* \"#utility.yul\":8691:8693   */\n      0x20\n        /* \"#utility.yul\":8686:8689   */\n      dup3\n        /* \"#utility.yul\":8682:8694   */\n      add\n        /* \"#utility.yul\":8675:8694   */\n      swap2\n      pop\n        /* \"#utility.yul\":8704:8779   */\n      tag_278\n        /* \"#utility.yul\":8775:8778   */\n      dup3\n        /* \"#utility.yul\":8766:8772   */\n      dup5\n        /* \"#utility.yul\":8704:8779   */\n      tag_181\n      jump\t// in\n    tag_278:\n        /* \"#utility.yul\":8804:8806   */\n      0x14\n        /* \"#utility.yul\":8799:8802   */\n      dup3\n        /* \"#utility.yul\":8795:8807   */\n      add\n        /* \"#utility.yul\":8788:8807   */\n      swap2\n      pop\n        /* \"#utility.yul\":8824:8827   */\n      dup2\n        /* \"#utility.yul\":8817:8827   */\n      swap1\n      pop\n        /* \"#utility.yul\":8295:8833   */\n      swap5\n      swap4\n      pop\n      pop\n      pop\n      pop\n      jump\t// out\n        /* \"#utility.yul\":8839:9019   */\n    tag_182:\n        /* \"#utility.yul\":8887:8964   */\n      0x4e487b7100000000000000000000000000000000000000000000000000000000\n        /* \"#utility.yul\":8884:8885   */\n      0x00\n        /* \"#utility.yul\":8877:8965   */\n      mstore\n        /* \"#utility.yul\":8984:8988   */\n      0x12\n        /* \"#utility.yul\":8981:8982   */\n      0x04\n        /* \"#utility.yul\":8974:8989   */\n      mstore\n        /* \"#utility.yul\":9008:9012   */\n      0x24\n        /* \"#utility.yul\":9005:9006   */\n      0x00\n        /* \"#utility.yul\":8998:9013   */\n      revert\n        /* \"#utility.yul\":9025:9201   */\n    tag_105:\n        /* \"#utility.yul\":9057:9058   */\n      0x00\n        /* \"#utility.yul\":9074:9094   */\n      tag_281\n        /* \"#utility.yul\":9092:9093   */\n      dup3\n        /* \"#utility.yul\":9074:9094   */\n      tag_159\n      jump\t// in\n    tag_281:\n        /* \"#utility.yul\":9069:9094   */\n      swap2\n      pop\n        /* \"#utility.yul\":9108:9128   */\n      tag_282\n        /* \"#utility.yul\":9126:9127   */\n      dup4\n        /* \"#utility.yul\":9108:9128   */\n      tag_159\n      jump\t// in\n    tag_282:\n        /* \"#utility.yul\":9103:9128   */\n      swap3\n      pop\n        /* \"#utility.yul\":9147:9148   */\n      dup3\n        /* \"#utility.yul\":9137:9172   */\n      tag_283\n      jumpi\n        /* \"#utility.yul\":9152:9170   */\n      tag_284\n      tag_182\n      jump\t// in\n    tag_284:\n        /* \"#utility.yul\":9137:9172   */\n    tag_283:\n        /* \"#utility.yul\":9193:9194   */\n      dup3\n        /* \"#utility.yul\":9190:9191   */\n      dup3\n        /* \"#utility.yul\":9186:9195   */\n      mod\n        /* \"#utility.yul\":9181:9195   */\n      swap1\n      pop\n        /* \"#utility.yul\":9025:9201   */\n      swap3\n      swap2\n      pop\n      pop\n      jump\t// out\n        /* \"#utility.yul\":9207:9392   */\n    tag_108:\n        /* \"#utility.yul\":9247:9248   */\n      0x00\n        /* \"#utility.yul\":9264:9284   */\n      tag_286\n        /* \"#utility.yul\":9282:9283   */\n      dup3\n        /* \"#utility.yul\":9264:9284   */\n      tag_159\n      jump\t// in\n    tag_286:\n        /* \"#utility.yul\":9259:9284   */\n      swap2\n      pop\n        /* \"#utility.yul\":9298:9318   */\n      tag_287\n        /* \"#utility.yul\":9316:9317   */\n      dup4\n        /* \"#utility.yul\":9298:9318   */\n      tag_159\n      jump\t// in\n    tag_287:\n        /* \"#utility.yul\":9293:9318   */\n      swap3\n      pop\n        /* \"#utility.yul\":9337:9338   */\n      dup3\n        /* \"#utility.yul\":9327:9362   */\n      tag_288\n      jumpi\n        /* \"#utility.yul\":9342:9360   */\n      tag_289\n      tag_182\n      jump\t// in\n    tag_289:\n        /* \"#utility.yul\":9327:9362   */\n    tag_288:\n        /* \"#utility.yul\":9384:9385   */\n      dup3\n        /* \"#utility.yul\":9381:9382   */\n      dup3\n        /* \"#utility.yul\":9377:9386   */\n      div\n        /* \"#utility.yul\":9372:9386   */\n      swap1\n      pop\n        /* \"#utility.yul\":9207:9392   */\n      swap3\n      swap2\n      pop\n      pop\n      jump\t// out\n        /* \"#utility.yul\":9398:9808   */\n    tag_110:\n        /* \"#utility.yul\":9438:9445   */\n      0x00\n        /* \"#utility.yul\":9461:9481   */\n      tag_291\n        /* \"#utility.yul\":9479:9480   */\n      dup3\n        /* \"#utility.yul\":9461:9481   */\n      tag_159\n      jump\t// in\n    tag_291:\n        /* \"#utility.yul\":9456:9481   */\n      swap2\n      pop\n        /* \"#utility.yul\":9495:9515   */\n      tag_292\n        /* \"#utility.yul\":9513:9514   */\n      dup4\n        /* \"#utility.yul\":9495:9515   */\n      tag_159\n      jump\t// in\n    tag_292:\n        /* \"#utility.yul\":9490:9515   */\n      swap3\n      pop\n        /* \"#utility.yul\":9550:9551   */\n      dup3\n        /* \"#utility.yul\":9547:9548   */\n      dup3\n        /* \"#utility.yul\":9543:9552   */\n      mul\n        /* \"#utility.yul\":9572:9602   */\n      tag_293\n        /* \"#utility.yul\":9590:9601   */\n      dup2\n        /* \"#utility.yul\":9572:9602   */\n      tag_159\n      jump\t// in\n    tag_293:\n        /* \"#utility.yul\":9561:9602   */\n      swap2\n      pop\n        /* \"#utility.yul\":9751:9752   */\n      dup3\n        /* \"#utility.yul\":9742:9749   */\n      dup3\n        /* \"#utility.yul\":9738:9753   */\n      div\n        /* \"#utility.yul\":9735:9736   */\n      dup5\n        /* \"#utility.yul\":9732:9754   */\n      eq\n        /* \"#utility.yul\":9712:9713   */\n      dup4\n        /* \"#utility.yul\":9705:9714   */\n      iszero\n        /* \"#utility.yul\":9685:9768   */\n      or\n        /* \"#utility.yul\":9662:9801   */\n      tag_294\n      jumpi\n        /* \"#utility.yul\":9781:9799   */\n      tag_295\n      tag_171\n      jump\t// in\n    tag_295:\n        /* \"#utility.yul\":9662:9801   */\n    tag_294:\n        /* \"#utility.yul\":9446:9808   */\n      pop\n        /* \"#utility.yul\":9398:9808   */\n      swap3\n      swap2\n      pop\n      pop\n      jump\t// out\n        /* \"#utility.yul\":9814:9992   */\n    tag_183:\n        /* \"#utility.yul\":9954:9984   */\n      0x4e6f7420656e6f75676820435a3420696e207072697a6520706f6f6c00000000\n        /* \"#utility.yul\":9950:9951   */\n      0x00\n        /* \"#utility.yul\":9942:9948   */\n      dup3\n        /* \"#utility.yul\":9938:9952   */\n      add\n        /* \"#utility.yul\":9931:9985   */\n      mstore\n        /* \"#utility.yul\":9814:9992   */\n      pop\n      jump\t// out\n        /* \"#utility.yul\":9998:10364   */\n    tag_184:\n        /* \"#utility.yul\":10140:10143   */\n      0x00\n        /* \"#utility.yul\":10161:10228   */\n      tag_298\n        /* \"#utility.yul\":10225:10227   */\n      0x1c\n        /* \"#utility.yul\":10220:10223   */\n      dup4\n        /* \"#utility.yul\":10161:10228   */\n      tag_168\n      jump\t// in\n    tag_298:\n        /* \"#utility.yul\":10154:10228   */\n      swap2\n      pop\n        /* \"#utility.yul\":10237:10330   */\n      tag_299\n        /* \"#utility.yul\":10326:10329   */\n      dup3\n        /* \"#utility.yul\":10237:10330   */\n      tag_183\n      jump\t// in\n    tag_299:\n        /* \"#utility.yul\":10355:10357   */\n      0x20\n        /* \"#utility.yul\":10350:10353   */\n      dup3\n        /* \"#utility.yul\":10346:10358   */\n      add\n        /* \"#utility.yul\":10339:10358   */\n      swap1\n      pop\n        /* \"#utility.yul\":9998:10364   */\n      swap2\n      swap1\n      pop\n      jump\t// out\n        /* \"#utility.yul\":10370:10789   */\n    tag_113:\n        /* \"#utility.yul\":10536:10540   */\n      0x00\n        /* \"#utility.yul\":10574:10576   */\n      0x20\n        /* \"#utility.yul\":10563:10572   */\n      dup3\n        /* \"#utility.yul\":10559:10577   */\n      add\n        /* \"#utility.yul\":10551:10577   */\n      swap1\n      pop\n        /* \"#utility.yul\":10623:10632   */\n      dup2\n        /* \"#utility.yul\":10617:10621   */\n      dup2\n        /* \"#utility.yul\":10613:10633   */\n      sub\n        /* \"#utility.yul\":10609:10610   */\n      0x00\n        /* \"#utility.yul\":10598:10607   */\n      dup4\n        /* \"#utility.yul\":10594:10611   */\n      add\n        /* \"#utility.yul\":10587:10634   */\n      mstore\n        /* \"#utility.yul\":10651:10782   */\n      tag_301\n        /* \"#utility.yul\":10777:10781   */\n      dup2\n        /* \"#utility.yul\":10651:10782   */\n      tag_184\n      jump\t// in\n    tag_301:\n        /* \"#utility.yul\":10643:10782   */\n      swap1\n      pop\n        /* \"#utility.yul\":10370:10789   */\n      swap2\n      swap1\n      pop\n      jump\t// out\n        /* \"#utility.yul\":10795:10989   */\n    tag_115:\n        /* \"#utility.yul\":10835:10839   */\n      0x00\n        /* \"#utility.yul\":10855:10875   */\n      tag_303\n        /* \"#utility.yul\":10873:10874   */\n      dup3\n        /* \"#utility.yul\":10855:10875   */\n      tag_159\n      jump\t// in\n    tag_303:\n        /* \"#utility.yul\":10850:10875   */\n      swap2\n      pop\n        /* \"#utility.yul\":10889:10909   */\n      tag_304\n        /* \"#utility.yul\":10907:10908   */\n      dup4\n        /* \"#utility.yul\":10889:10909   */\n      tag_159\n      jump\t// in\n    tag_304:\n        /* \"#utility.yul\":10884:10909   */\n      swap3\n      pop\n        /* \"#utility.yul\":10933:10934   */\n      dup3\n        /* \"#utility.yul\":10930:10931   */\n      dup3\n        /* \"#utility.yul\":10926:10935   */\n      sub\n        /* \"#utility.yul\":10918:10935   */\n      swap1\n      pop\n        /* \"#utility.yul\":10957:10958   */\n      dup2\n        /* \"#utility.yul\":10951:10955   */\n      dup2\n        /* \"#utility.yul\":10948:10959   */\n      gt\n        /* \"#utility.yul\":10945:10982   */\n      iszero\n      tag_305\n      jumpi\n        /* \"#utility.yul\":10962:10980   */\n      tag_306\n      tag_171\n      jump\t// in\n    tag_306:\n        /* \"#utility.yul\":10945:10982   */\n    tag_305:\n        /* \"#utility.yul\":10795:10989   */\n      swap3\n      swap2\n      pop\n      pop\n      jump\t// out\n        /* \"#utility.yul\":10995:11327   */\n    tag_118:\n        /* \"#utility.yul\":11116:11120   */\n      0x00\n        /* \"#utility.yul\":11154:11156   */\n      0x40\n        /* \"#utility.yul\":11143:11152   */\n      dup3\n        /* \"#utility.yul\":11139:11157   */\n      add\n        /* \"#utility.yul\":11131:11157   */\n      swap1\n      pop\n        /* \"#utility.yul\":11167:11238   */\n      tag_308\n        /* \"#utility.yul\":11235:11236   */\n      0x00\n        /* \"#utility.yul\":11224:11233   */\n      dup4\n        /* \"#utility.yul\":11220:11237   */\n      add\n        /* \"#utility.yul\":11211:11217   */\n      dup6\n        /* \"#utility.yul\":11167:11238   */\n      tag_162\n      jump\t// in\n    tag_308:\n        /* \"#utility.yul\":11248:11320   */\n      tag_309\n        /* \"#utility.yul\":11316:11318   */\n      0x20\n        /* \"#utility.yul\":11305:11314   */\n      dup4\n        /* \"#utility.yul\":11301:11319   */\n      add\n        /* \"#utility.yul\":11292:11298   */\n      dup5\n        /* \"#utility.yul\":11248:11320   */\n      tag_162\n      jump\t// in\n    tag_309:\n        /* \"#utility.yul\":10995:11327   */\n      swap4\n      swap3\n      pop\n      pop\n      pop\n      jump\t// out\n        /* \"#utility.yul\":11333:11665   */\n    tag_136:\n        /* \"#utility.yul\":11454:11458   */\n      0x00\n        /* \"#utility.yul\":11492:11494   */\n      0x40\n        /* \"#utility.yul\":11481:11490   */\n      dup3\n        /* \"#utility.yul\":11477:11495   */\n      add\n        /* \"#utility.yul\":11469:11495   */\n      swap1\n      pop\n        /* \"#utility.yul\":11505:11576   */\n      tag_311\n        /* \"#utility.yul\":11573:11574   */\n      0x00\n        /* \"#utility.yul\":11562:11571   */\n      dup4\n        /* \"#utility.yul\":11558:11575   */\n      add\n        /* \"#utility.yul\":11549:11555   */\n      dup6\n        /* \"#utility.yul\":11505:11576   */\n      tag_164\n      jump\t// in\n    tag_311:\n        /* \"#utility.yul\":11586:11658   */\n      tag_312\n        /* \"#utility.yul\":11654:11656   */\n      0x20\n        /* \"#utility.yul\":11643:11652   */\n      dup4\n        /* \"#utility.yul\":11639:11657   */\n      add\n        /* \"#utility.yul\":11630:11636   */\n      dup5\n        /* \"#utility.yul\":11586:11658   */\n      tag_162\n      jump\t// in\n    tag_312:\n        /* \"#utility.yul\":11333:11665   */\n      swap4\n      swap3\n      pop\n      pop\n      pop\n      jump\t// out\n        /* \"#utility.yul\":11671:12113   */\n    tag_141:\n        /* \"#utility.yul\":11820:11824   */\n      0x00\n        /* \"#utility.yul\":11858:11860   */\n      0x60\n        /* \"#utility.yul\":11847:11856   */\n      dup3\n        /* \"#utility.yul\":11843:11861   */\n      add\n        /* \"#utility.yul\":11835:11861   */\n      swap1\n      pop\n        /* \"#utility.yul\":11871:11942   */\n      tag_314\n        /* \"#utility.yul\":11939:11940   */\n      0x00\n        /* \"#utility.yul\":11928:11937   */\n      dup4\n        /* \"#utility.yul\":11924:11941   */\n      add\n        /* \"#utility.yul\":11915:11921   */\n      dup7\n        /* \"#utility.yul\":11871:11942   */\n      tag_164\n      jump\t// in\n    tag_314:\n        /* \"#utility.yul\":11952:12024   */\n      tag_315\n        /* \"#utility.yul\":12020:12022   */\n      0x20\n        /* \"#utility.yul\":12009:12018   */\n      dup4\n        /* \"#utility.yul\":12005:12023   */\n      add\n        /* \"#utility.yul\":11996:12002   */\n      dup6\n        /* \"#utility.yul\":11952:12024   */\n      tag_164\n      jump\t// in\n    tag_315:\n        /* \"#utility.yul\":12034:12106   */\n      tag_316\n        /* \"#utility.yul\":12102:12104   */\n      0x40\n        /* \"#utility.yul\":12091:12100   */\n      dup4\n        /* \"#utility.yul\":12087:12105   */\n      add\n        /* \"#utility.yul\":12078:12084   */\n      dup5\n        /* \"#utility.yul\":12034:12106   */\n      tag_162\n      jump\t// in\n    tag_316:\n        /* \"#utility.yul\":11671:12113   */\n      swap5\n      swap4\n      pop\n      pop\n      pop\n      pop\n      jump\t// out\n\n    auxdata: 0xa264697066735822122002dd75bba71c59916e82e7ee054cb13b51c652066503c2981b82a3f558cc5fca64736f6c634300081a0033\n}\n",
				"bytecode": {
					"linkReferences": {},
					"object": "608060405234801561000f575f80fd5b506040516114cf3803806114cf8339818101604052810190610031919061026c565b7350dd541ad540d046e5822a1d5440060d58776ea65f73ffffffffffffffffffffffffffffffffffffffff168173ffffffffffffffffffffffffffffffffffffffff16036100b6575f6040517f1e4fbdf70000000000000000000000000000000000000000000000000000000081526004016100ad91906102b9565b60405180910390fd5b6100c58161014d60201b60201c565b508160015f6101000a81548173ffffffffffffffffffffffffffffffffffffffff021916908373ffffffffffffffffffffffffffffffffffffffff1602179055508060025f6101000a81548173ffffffffffffffffffffffffffffffffffffffff021916908373ffffffffffffffffffffffffffffffffffffffff16021790555050506102d2565b5f805f9054906101000a900473ffffffffffffffffffffffffffffffffffffffff169050815f806101000a81548173ffffffffffffffffffffffffffffffffffffffff021916908373ffffffffffffffffffffffffffffffffffffffff1602179055508173ffffffffffffffffffffffffffffffffffffffff168173ffffffffffffffffffffffffffffffffffffffff167f8be0079c531659141344cd1fd0a4f28419497f9722a3daafe3b4186f6b6457e060405160405180910390a35050565b5f80fd5b5f73ffffffffffffffffffffffffffffffffffffffff82169050919050565b5f61023b82610212565b9050919050565b61024b81610231565b8114610255575f80fd5b50565b5f8151905061026681610242565b92915050565b5f80604083850312156102825761028161020e565b5b5f61028f85828601610258565b92505060206102a085828601610258565b9150509250929050565b6102b381610231565b82525050565b5f6020820190506102cc5f8301846102aa565b92915050565b6111f0806102df5f395ff3fe608060405260043610610089575f3560e01c8063715018a611610058578063715018a614610126578063785fa6271461013c57806379d4964f146101665780638da5cb5b1461018e578063f2fde38b146101b857610090565b80631e1a6e6e1461009457806324600fc3146100be5780632a050024146100d457806344a88070146100fc57610090565b3661009057005b5f80fd5b34801561009f575f80fd5b506100a86101e0565b6040516100b59190610bc9565b60405180910390f35b3480156100c9575f80fd5b506100d2610205565b005b3480156100df575f80fd5b506100fa60048036038101906100f59190610c19565b61045a565b005b348015610107575f80fd5b50610110610544565b60405161011d9190610bc9565b60405180910390f35b348015610131575f80fd5b5061013a610569565b005b348015610147575f80fd5b5061015061057c565b60405161015d9190610c53565b60405180910390f35b348015610171575f80fd5b5061018c60048036038101906101879190610c19565b610582565b005b348015610199575f80fd5b506101a26107b9565b6040516101af9190610c8c565b60405180910390f35b3480156101c3575f80fd5b506101de60048036038101906101d99190610ccf565b6107e0565b005b60015f9054906101000a900473ffffffffffffffffffffffffffffffffffffffff1681565b61020d610864565b5f4790505f60015f9054906101000a900473ffffffffffffffffffffffffffffffffffffffff1673ffffffffffffffffffffffffffffffffffffffff166370a08231306040518263ffffffff1660e01b815260040161026c9190610c8c565b602060405180830381865afa158015610287573d5f803e3d5ffd5b505050506040513d601f19601f820116820180604052508101906102ab9190610d0e565b90505f60025f9054906101000a900473ffffffffffffffffffffffffffffffffffffffff1673ffffffffffffffffffffffffffffffffffffffff166370a08231306040518263ffffffff1660e01b81526004016103089190610c8c565b602060405180830381865afa158015610323573d5f803e3d5ffd5b505050506040513d601f19601f820116820180604052508101906103479190610d0e565b90505f83111561039d576103596107b9565b73ffffffffffffffffffffffffffffffffffffffff166108fc8490811502906040515f60405180830381858888f1935050505015801561039b573d5f803e3d5ffd5b505b5f8211156103f9576103f86103b06107b9565b8360015f9054906101000a900473ffffffffffffffffffffffffffffffffffffffff1673ffffffffffffffffffffffffffffffffffffffff166108eb9092919063ffffffff16565b5b5f8111156104555761045461040c6107b9565b8260025f9054906101000a900473ffffffffffffffffffffffffffffffffffffffff1673ffffffffffffffffffffffffffffffffffffffff166108eb9092919063ffffffff16565b5b505050565b610462610864565b5f81116104a4576040517f08c379a000000000000000000000000000000000000000000000000000000000815260040161049b90610db9565b60405180910390fd5b6104f233308360015f9054906101000a900473ffffffffffffffffffffffffffffffffffffffff1673ffffffffffffffffffffffffffffffffffffffff1661096a909392919063ffffffff16565b8060035f8282546105039190610e04565b925050819055507f7e4809669d29d4f60fc52cdc899ff62c77b16c6a3893532c483386afa590a271816040516105399190610c53565b60405180910390a150565b60025f9054906101000a900473ffffffffffffffffffffffffffffffffffffffff1681565b610571610864565b61057a5f6109ec565b565b60035481565b5f81116105c4576040517f08c379a00000000000000000000000000000000000000000000000000000000081526004016105bb90610ea7565b60405180910390fd5b5f60035411610608576040517f08c379a00000000000000000000000000000000000000000000000000000000081526004016105ff90610f0f565b60405180910390fd5b61065633308360025f9054906101000a900473ffffffffffffffffffffffffffffffffffffffff1673ffffffffffffffffffffffffffffffffffffffff1661096a909392919063ffffffff16565b5f6001600542443360405160200161067093929190610f92565b604051602081830303815290604052805190602001205f1c6106929190610ffb565b61069c9190610e04565b90505f81620f4240846106af919061102b565b6106b9919061105b565b9050600354811115610700576040517f08c379a00000000000000000000000000000000000000000000000000000000081526004016106f7906110e6565b60405180910390fd5b8060035f8282546107119190611104565b92505081905550610764338260015f9054906101000a900473ffffffffffffffffffffffffffffffffffffffff1673ffffffffffffffffffffffffffffffffffffffff166108eb9092919063ffffffff16565b3373ffffffffffffffffffffffffffffffffffffffff167f6dd63c9a34674245c3658d149ff4d640423eb11008c777a57783c3237d96ffcf84836040516107ac929190611137565b60405180910390a2505050565b5f805f9054906101000a900473ffffffffffffffffffffffffffffffffffffffff16905090565b6107e8610864565b5f73ffffffffffffffffffffffffffffffffffffffff168173ffffffffffffffffffffffffffffffffffffffff1603610858575f6040517f1e4fbdf700000000000000000000000000000000000000000000000000000000815260040161084f9190610c8c565b60405180910390fd5b610861816109ec565b50565b61086c610aad565b73ffffffffffffffffffffffffffffffffffffffff1661088a6107b9565b73ffffffffffffffffffffffffffffffffffffffff16146108e9576108ad610aad565b6040517f118cdaa70000000000000000000000000000000000000000000000000000000081526004016108e09190610c8c565b60405180910390fd5b565b610965838473ffffffffffffffffffffffffffffffffffffffff1663a9059cbb858560405160240161091e92919061115e565b604051602081830303815290604052915060e01b6020820180517bffffffffffffffffffffffffffffffffffffffffffffffffffffffff8381831617835250505050610ab4565b505050565b6109e6848573ffffffffffffffffffffffffffffffffffffffff166323b872dd86868660405160240161099f93929190611185565b604051602081830303815290604052915060e01b6020820180517bffffffffffffffffffffffffffffffffffffffffffffffffffffffff8381831617835250505050610ab4565b50505050565b5f805f9054906101000a900473ffffffffffffffffffffffffffffffffffffffff169050815f806101000a81548173ffffffffffffffffffffffffffffffffffffffff021916908373ffffffffffffffffffffffffffffffffffffffff1602179055508173ffffffffffffffffffffffffffffffffffffffff168173ffffffffffffffffffffffffffffffffffffffff167f8be0079c531659141344cd1fd0a4f28419497f9722a3daafe3b4186f6b6457e060405160405180910390a35050565b5f33905090565b5f8060205f8451602086015f885af180610ad3576040513d5f823e3d81fd5b3d92505f519150505f8214610aec576001811415610b07565b5f8473ffffffffffffffffffffffffffffffffffffffff163b145b15610b4957836040517f5274afe7000000000000000000000000000000000000000000000000000000008152600401610b409190610c8c565b60405180910390fd5b50505050565b5f73ffffffffffffffffffffffffffffffffffffffff82169050919050565b5f819050919050565b5f610b91610b8c610b8784610b4f565b610b6e565b610b4f565b9050919050565b5f610ba282610b77565b9050919050565b5f610bb382610b98565b9050919050565b610bc381610ba9565b82525050565b5f602082019050610bdc5f830184610bba565b92915050565b5f80fd5b5f819050919050565b610bf881610be6565b8114610c02575f80fd5b50565b5f81359050610c1381610bef565b92915050565b5f60208284031215610c2e57610c2d610be2565b5b5f610c3b84828501610c05565b91505092915050565b610c4d81610be6565b82525050565b5f602082019050610c665f830184610c44565b92915050565b5f610c7682610b4f565b9050919050565b610c8681610c6c565b82525050565b5f602082019050610c9f5f830184610c7d565b92915050565b610cae81610c6c565b8114610cb8575f80fd5b50565b5f81359050610cc981610ca5565b92915050565b5f60208284031215610ce457610ce3610be2565b5b5f610cf184828501610cbb565b91505092915050565b5f81519050610d0881610bef565b92915050565b5f60208284031215610d2357610d22610be2565b5b5f610d3084828501610cfa565b91505092915050565b5f82825260208201905092915050565b7f5072697a6520616d6f756e74206d7573742062652067726561746572207468615f8201527f6e207a65726f0000000000000000000000000000000000000000000000000000602082015250565b5f610da3602683610d39565b9150610dae82610d49565b604082019050919050565b5f6020820190508181035f830152610dd081610d97565b9050919050565b7f4e487b71000000000000000000000000000000000000000000000000000000005f52601160045260245ffd5b5f610e0e82610be6565b9150610e1983610be6565b9250828201905080821115610e3157610e30610dd7565b5b92915050565b7f4465706f73697420616d6f756e74206d757374206265206772656174657220745f8201527f68616e207a65726f000000000000000000000000000000000000000000000000602082015250565b5f610e91602883610d39565b9150610e9c82610e37565b604082019050919050565b5f6020820190508181035f830152610ebe81610e85565b9050919050565b7f5072697a6520706f6f6c20697320656d707479000000000000000000000000005f82015250565b5f610ef9601383610d39565b9150610f0482610ec5565b602082019050919050565b5f6020820190508181035f830152610f2681610eed565b9050919050565b5f819050919050565b610f47610f4282610be6565b610f2d565b82525050565b5f8160601b9050919050565b5f610f6382610f4d565b9050919050565b5f610f7482610f59565b9050919050565b610f8c610f8782610c6c565b610f6a565b82525050565b5f610f9d8286610f36565b602082019150610fad8285610f36565b602082019150610fbd8284610f7b565b601482019150819050949350505050565b7f4e487b71000000000000000000000000000000000000000000000000000000005f52601260045260245ffd5b5f61100582610be6565b915061101083610be6565b9250826110205761101f610fce565b5b828206905092915050565b5f61103582610be6565b915061104083610be6565b9250826110505761104f610fce565b5b828204905092915050565b5f61106582610be6565b915061107083610be6565b925082820261107e81610be6565b9150828204841483151761109557611094610dd7565b5b5092915050565b7f4e6f7420656e6f75676820435a3420696e207072697a6520706f6f6c000000005f82015250565b5f6110d0601c83610d39565b91506110db8261109c565b602082019050919050565b5f6020820190508181035f8301526110fd816110c4565b9050919050565b5f61110e82610be6565b915061111983610be6565b925082820390508181111561113157611130610dd7565b5b92915050565b5f60408201905061114a5f830185610c44565b6111576020830184610c44565b9392505050565b5f6040820190506111715f830185610c7d565b61117e6020830184610c44565b9392505050565b5f6060820190506111985f830186610c7d565b6111a56020830185610c7d565b6111b26040830184610c44565b94935050505056fea264697066735822122002dd75bba71c59916e82e7ee054cb13b51c652066503c2981b82a3f558cc5fca64736f6c634300081a0033",
					"opcodes": "PUSH1 0x80 PUSH1 0x40 MSTORE CALLVALUE DUP1 ISZERO PUSH2 0xF JUMPI PUSH0 DUP1 REVERT JUMPDEST POP PUSH1 0x40 MLOAD PUSH2 0x14CF CODESIZE SUB DUP1 PUSH2 0x14CF DUP4 CODECOPY DUP2 DUP2 ADD PUSH1 0x40 MSTORE DUP2 ADD SWAP1 PUSH2 0x31 SWAP2 SWAP1 PUSH2 0x26C JUMP JUMPDEST PUSH20 0x50DD541AD540D046E5822A1D5440060D58776EA6 PUSH0 PUSH20 0xFFFFFFFFFFFFFFFFFFFFFFFFFFFFFFFFFFFFFFFF AND DUP2 PUSH20 0xFFFFFFFFFFFFFFFFFFFFFFFFFFFFFFFFFFFFFFFF AND SUB PUSH2 0xB6 JUMPI PUSH0 PUSH1 0x40 MLOAD PUSH32 0x1E4FBDF700000000000000000000000000000000000000000000000000000000 DUP2 MSTORE PUSH1 0x4 ADD PUSH2 0xAD SWAP2 SWAP1 PUSH2 0x2B9 JUMP JUMPDEST PUSH1 0x40 MLOAD DUP1 SWAP2 SUB SWAP1 REVERT JUMPDEST PUSH2 0xC5 DUP2 PUSH2 0x14D PUSH1 0x20 SHL PUSH1 0x20 SHR JUMP JUMPDEST POP DUP2 PUSH1 0x1 PUSH0 PUSH2 0x100 EXP DUP2 SLOAD DUP2 PUSH20 0xFFFFFFFFFFFFFFFFFFFFFFFFFFFFFFFFFFFFFFFF MUL NOT AND SWAP1 DUP4 PUSH20 0xFFFFFFFFFFFFFFFFFFFFFFFFFFFFFFFFFFFFFFFF AND MUL OR SWAP1 SSTORE POP DUP1 PUSH1 0x2 PUSH0 PUSH2 0x100 EXP DUP2 SLOAD DUP2 PUSH20 0xFFFFFFFFFFFFFFFFFFFFFFFFFFFFFFFFFFFFFFFF MUL NOT AND SWAP1 DUP4 PUSH20 0xFFFFFFFFFFFFFFFFFFFFFFFFFFFFFFFFFFFFFFFF AND MUL OR SWAP1 SSTORE POP POP POP PUSH2 0x2D2 JUMP JUMPDEST PUSH0 DUP1 PUSH0 SWAP1 SLOAD SWAP1 PUSH2 0x100 EXP SWAP1 DIV PUSH20 0xFFFFFFFFFFFFFFFFFFFFFFFFFFFFFFFFFFFFFFFF AND SWAP1 POP DUP2 PUSH0 DUP1 PUSH2 0x100 EXP DUP2 SLOAD DUP2 PUSH20 0xFFFFFFFFFFFFFFFFFFFFFFFFFFFFFFFFFFFFFFFF MUL NOT AND SWAP1 DUP4 PUSH20 0xFFFFFFFFFFFFFFFFFFFFFFFFFFFFFFFFFFFFFFFF AND MUL OR SWAP1 SSTORE POP DUP2 PUSH20 0xFFFFFFFFFFFFFFFFFFFFFFFFFFFFFFFFFFFFFFFF AND DUP2 PUSH20 0xFFFFFFFFFFFFFFFFFFFFFFFFFFFFFFFFFFFFFFFF AND PUSH32 0x8BE0079C531659141344CD1FD0A4F28419497F9722A3DAAFE3B4186F6B6457E0 PUSH1 0x40 MLOAD PUSH1 0x40 MLOAD DUP1 SWAP2 SUB SWAP1 LOG3 POP POP JUMP JUMPDEST PUSH0 DUP1 REVERT JUMPDEST PUSH0 PUSH20 0xFFFFFFFFFFFFFFFFFFFFFFFFFFFFFFFFFFFFFFFF DUP3 AND SWAP1 POP SWAP2 SWAP1 POP JUMP JUMPDEST PUSH0 PUSH2 0x23B DUP3 PUSH2 0x212 JUMP JUMPDEST SWAP1 POP SWAP2 SWAP1 POP JUMP JUMPDEST PUSH2 0x24B DUP2 PUSH2 0x231 JUMP JUMPDEST DUP2 EQ PUSH2 0x255 JUMPI PUSH0 DUP1 REVERT JUMPDEST POP JUMP JUMPDEST PUSH0 DUP2 MLOAD SWAP1 POP PUSH2 0x266 DUP2 PUSH2 0x242 JUMP JUMPDEST SWAP3 SWAP2 POP POP JUMP JUMPDEST PUSH0 DUP1 PUSH1 0x40 DUP4 DUP6 SUB SLT ISZERO PUSH2 0x282 JUMPI PUSH2 0x281 PUSH2 0x20E JUMP JUMPDEST JUMPDEST PUSH0 PUSH2 0x28F DUP6 DUP3 DUP7 ADD PUSH2 0x258 JUMP JUMPDEST SWAP3 POP POP PUSH1 0x20 PUSH2 0x2A0 DUP6 DUP3 DUP7 ADD PUSH2 0x258 JUMP JUMPDEST SWAP2 POP POP SWAP3 POP SWAP3 SWAP1 POP JUMP JUMPDEST PUSH2 0x2B3 DUP2 PUSH2 0x231 JUMP JUMPDEST DUP3 MSTORE POP POP JUMP JUMPDEST PUSH0 PUSH1 0x20 DUP3 ADD SWAP1 POP PUSH2 0x2CC PUSH0 DUP4 ADD DUP5 PUSH2 0x2AA JUMP JUMPDEST SWAP3 SWAP2 POP POP JUMP JUMPDEST PUSH2 0x11F0 DUP1 PUSH2 0x2DF PUSH0 CODECOPY PUSH0 RETURN INVALID PUSH1 0x80 PUSH1 0x40 MSTORE PUSH1 0x4 CALLDATASIZE LT PUSH2 0x89 JUMPI PUSH0 CALLDATALOAD PUSH1 0xE0 SHR DUP1 PUSH4 0x715018A6 GT PUSH2 0x58 JUMPI DUP1 PUSH4 0x715018A6 EQ PUSH2 0x126 JUMPI DUP1 PUSH4 0x785FA627 EQ PUSH2 0x13C JUMPI DUP1 PUSH4 0x79D4964F EQ PUSH2 0x166 JUMPI DUP1 PUSH4 0x8DA5CB5B EQ PUSH2 0x18E JUMPI DUP1 PUSH4 0xF2FDE38B EQ PUSH2 0x1B8 JUMPI PUSH2 0x90 JUMP JUMPDEST DUP1 PUSH4 0x1E1A6E6E EQ PUSH2 0x94 JUMPI DUP1 PUSH4 0x24600FC3 EQ PUSH2 0xBE JUMPI DUP1 PUSH4 0x2A050024 EQ PUSH2 0xD4 JUMPI DUP1 PUSH4 0x44A88070 EQ PUSH2 0xFC JUMPI PUSH2 0x90 JUMP JUMPDEST CALLDATASIZE PUSH2 0x90 JUMPI STOP JUMPDEST PUSH0 DUP1 REVERT JUMPDEST CALLVALUE DUP1 ISZERO PUSH2 0x9F JUMPI PUSH0 DUP1 REVERT JUMPDEST POP PUSH2 0xA8 PUSH2 0x1E0 JUMP JUMPDEST PUSH1 0x40 MLOAD PUSH2 0xB5 SWAP2 SWAP1 PUSH2 0xBC9 JUMP JUMPDEST PUSH1 0x40 MLOAD DUP1 SWAP2 SUB SWAP1 RETURN JUMPDEST CALLVALUE DUP1 ISZERO PUSH2 0xC9 JUMPI PUSH0 DUP1 REVERT JUMPDEST POP PUSH2 0xD2 PUSH2 0x205 JUMP JUMPDEST STOP JUMPDEST CALLVALUE DUP1 ISZERO PUSH2 0xDF JUMPI PUSH0 DUP1 REVERT JUMPDEST POP PUSH2 0xFA PUSH1 0x4 DUP1 CALLDATASIZE SUB DUP2 ADD SWAP1 PUSH2 0xF5 SWAP2 SWAP1 PUSH2 0xC19 JUMP JUMPDEST PUSH2 0x45A JUMP JUMPDEST STOP JUMPDEST CALLVALUE DUP1 ISZERO PUSH2 0x107 JUMPI PUSH0 DUP1 REVERT JUMPDEST POP PUSH2 0x110 PUSH2 0x544 JUMP JUMPDEST PUSH1 0x40 MLOAD PUSH2 0x11D SWAP2 SWAP1 PUSH2 0xBC9 JUMP JUMPDEST PUSH1 0x40 MLOAD DUP1 SWAP2 SUB SWAP1 RETURN JUMPDEST CALLVALUE DUP1 ISZERO PUSH2 0x131 JUMPI PUSH0 DUP1 REVERT JUMPDEST POP PUSH2 0x13A PUSH2 0x569 JUMP JUMPDEST STOP JUMPDEST CALLVALUE DUP1 ISZERO PUSH2 0x147 JUMPI PUSH0 DUP1 REVERT JUMPDEST POP PUSH2 0x150 PUSH2 0x57C JUMP JUMPDEST PUSH1 0x40 MLOAD PUSH2 0x15D SWAP2 SWAP1 PUSH2 0xC53 JUMP JUMPDEST PUSH1 0x40 MLOAD DUP1 SWAP2 SUB SWAP1 RETURN JUMPDEST CALLVALUE DUP1 ISZERO PUSH2 0x171 JUMPI PUSH0 DUP1 REVERT JUMPDEST POP PUSH2 0x18C PUSH1 0x4 DUP1 CALLDATASIZE SUB DUP2 ADD SWAP1 PUSH2 0x187 SWAP2 SWAP1 PUSH2 0xC19 JUMP JUMPDEST PUSH2 0x582 JUMP JUMPDEST STOP JUMPDEST CALLVALUE DUP1 ISZERO PUSH2 0x199 JUMPI PUSH0 DUP1 REVERT JUMPDEST POP PUSH2 0x1A2 PUSH2 0x7B9 JUMP JUMPDEST PUSH1 0x40 MLOAD PUSH2 0x1AF SWAP2 SWAP1 PUSH2 0xC8C JUMP JUMPDEST PUSH1 0x40 MLOAD DUP1 SWAP2 SUB SWAP1 RETURN JUMPDEST CALLVALUE DUP1 ISZERO PUSH2 0x1C3 JUMPI PUSH0 DUP1 REVERT JUMPDEST POP PUSH2 0x1DE PUSH1 0x4 DUP1 CALLDATASIZE SUB DUP2 ADD SWAP1 PUSH2 0x1D9 SWAP2 SWAP1 PUSH2 0xCCF JUMP JUMPDEST PUSH2 0x7E0 JUMP JUMPDEST STOP JUMPDEST PUSH1 0x1 PUSH0 SWAP1 SLOAD SWAP1 PUSH2 0x100 EXP SWAP1 DIV PUSH20 0xFFFFFFFFFFFFFFFFFFFFFFFFFFFFFFFFFFFFFFFF AND DUP2 JUMP JUMPDEST PUSH2 0x20D PUSH2 0x864 JUMP JUMPDEST PUSH0 SELFBALANCE SWAP1 POP PUSH0 PUSH1 0x1 PUSH0 SWAP1 SLOAD SWAP1 PUSH2 0x100 EXP SWAP1 DIV PUSH20 0xFFFFFFFFFFFFFFFFFFFFFFFFFFFFFFFFFFFFFFFF AND PUSH20 0xFFFFFFFFFFFFFFFFFFFFFFFFFFFFFFFFFFFFFFFF AND PUSH4 0x70A08231 ADDRESS PUSH1 0x40 MLOAD DUP3 PUSH4 0xFFFFFFFF AND PUSH1 0xE0 SHL DUP2 MSTORE PUSH1 0x4 ADD PUSH2 0x26C SWAP2 SWAP1 PUSH2 0xC8C JUMP JUMPDEST PUSH1 0x20 PUSH1 0x40 MLOAD DUP1 DUP4 SUB DUP2 DUP7 GAS STATICCALL ISZERO DUP1 ISZERO PUSH2 0x287 JUMPI RETURNDATASIZE PUSH0 DUP1 RETURNDATACOPY RETURNDATASIZE PUSH0 REVERT JUMPDEST POP POP POP POP PUSH1 0x40 MLOAD RETURNDATASIZE PUSH1 0x1F NOT PUSH1 0x1F DUP3 ADD AND DUP3 ADD DUP1 PUSH1 0x40 MSTORE POP DUP2 ADD SWAP1 PUSH2 0x2AB SWAP2 SWAP1 PUSH2 0xD0E JUMP JUMPDEST SWAP1 POP PUSH0 PUSH1 0x2 PUSH0 SWAP1 SLOAD SWAP1 PUSH2 0x100 EXP SWAP1 DIV PUSH20 0xFFFFFFFFFFFFFFFFFFFFFFFFFFFFFFFFFFFFFFFF AND PUSH20 0xFFFFFFFFFFFFFFFFFFFFFFFFFFFFFFFFFFFFFFFF AND PUSH4 0x70A08231 ADDRESS PUSH1 0x40 MLOAD DUP3 PUSH4 0xFFFFFFFF AND PUSH1 0xE0 SHL DUP2 MSTORE PUSH1 0x4 ADD PUSH2 0x308 SWAP2 SWAP1 PUSH2 0xC8C JUMP JUMPDEST PUSH1 0x20 PUSH1 0x40 MLOAD DUP1 DUP4 SUB DUP2 DUP7 GAS STATICCALL ISZERO DUP1 ISZERO PUSH2 0x323 JUMPI RETURNDATASIZE PUSH0 DUP1 RETURNDATACOPY RETURNDATASIZE PUSH0 REVERT JUMPDEST POP POP POP POP PUSH1 0x40 MLOAD RETURNDATASIZE PUSH1 0x1F NOT PUSH1 0x1F DUP3 ADD AND DUP3 ADD DUP1 PUSH1 0x40 MSTORE POP DUP2 ADD SWAP1 PUSH2 0x347 SWAP2 SWAP1 PUSH2 0xD0E JUMP JUMPDEST SWAP1 POP PUSH0 DUP4 GT ISZERO PUSH2 0x39D JUMPI PUSH2 0x359 PUSH2 0x7B9 JUMP JUMPDEST PUSH20 0xFFFFFFFFFFFFFFFFFFFFFFFFFFFFFFFFFFFFFFFF AND PUSH2 0x8FC DUP5 SWAP1 DUP2 ISZERO MUL SWAP1 PUSH1 0x40 MLOAD PUSH0 PUSH1 0x40 MLOAD DUP1 DUP4 SUB DUP2 DUP6 DUP9 DUP9 CALL SWAP4 POP POP POP POP ISZERO DUP1 ISZERO PUSH2 0x39B JUMPI RETURNDATASIZE PUSH0 DUP1 RETURNDATACOPY RETURNDATASIZE PUSH0 REVERT JUMPDEST POP JUMPDEST PUSH0 DUP3 GT ISZERO PUSH2 0x3F9 JUMPI PUSH2 0x3F8 PUSH2 0x3B0 PUSH2 0x7B9 JUMP JUMPDEST DUP4 PUSH1 0x1 PUSH0 SWAP1 SLOAD SWAP1 PUSH2 0x100 EXP SWAP1 DIV PUSH20 0xFFFFFFFFFFFFFFFFFFFFFFFFFFFFFFFFFFFFFFFF AND PUSH20 0xFFFFFFFFFFFFFFFFFFFFFFFFFFFFFFFFFFFFFFFF AND PUSH2 0x8EB SWAP1 SWAP3 SWAP2 SWAP1 PUSH4 0xFFFFFFFF AND JUMP JUMPDEST JUMPDEST PUSH0 DUP2 GT ISZERO PUSH2 0x455 JUMPI PUSH2 0x454 PUSH2 0x40C PUSH2 0x7B9 JUMP JUMPDEST DUP3 PUSH1 0x2 PUSH0 SWAP1 SLOAD SWAP1 PUSH2 0x100 EXP SWAP1 DIV PUSH20 0xFFFFFFFFFFFFFFFFFFFFFFFFFFFFFFFFFFFFFFFF AND PUSH20 0xFFFFFFFFFFFFFFFFFFFFFFFFFFFFFFFFFFFFFFFF AND PUSH2 0x8EB SWAP1 SWAP3 SWAP2 SWAP1 PUSH4 0xFFFFFFFF AND JUMP JUMPDEST JUMPDEST POP POP POP JUMP JUMPDEST PUSH2 0x462 PUSH2 0x864 JUMP JUMPDEST PUSH0 DUP2 GT PUSH2 0x4A4 JUMPI PUSH1 0x40 MLOAD PUSH32 0x8C379A000000000000000000000000000000000000000000000000000000000 DUP2 MSTORE PUSH1 0x4 ADD PUSH2 0x49B SWAP1 PUSH2 0xDB9 JUMP JUMPDEST PUSH1 0x40 MLOAD DUP1 SWAP2 SUB SWAP1 REVERT JUMPDEST PUSH2 0x4F2 CALLER ADDRESS DUP4 PUSH1 0x1 PUSH0 SWAP1 SLOAD SWAP1 PUSH2 0x100 EXP SWAP1 DIV PUSH20 0xFFFFFFFFFFFFFFFFFFFFFFFFFFFFFFFFFFFFFFFF AND PUSH20 0xFFFFFFFFFFFFFFFFFFFFFFFFFFFFFFFFFFFFFFFF AND PUSH2 0x96A SWAP1 SWAP4 SWAP3 SWAP2 SWAP1 PUSH4 0xFFFFFFFF AND JUMP JUMPDEST DUP1 PUSH1 0x3 PUSH0 DUP3 DUP3 SLOAD PUSH2 0x503 SWAP2 SWAP1 PUSH2 0xE04 JUMP JUMPDEST SWAP3 POP POP DUP2 SWAP1 SSTORE POP PUSH32 0x7E4809669D29D4F60FC52CDC899FF62C77B16C6A3893532C483386AFA590A271 DUP2 PUSH1 0x40 MLOAD PUSH2 0x539 SWAP2 SWAP1 PUSH2 0xC53 JUMP JUMPDEST PUSH1 0x40 MLOAD DUP1 SWAP2 SUB SWAP1 LOG1 POP JUMP JUMPDEST PUSH1 0x2 PUSH0 SWAP1 SLOAD SWAP1 PUSH2 0x100 EXP SWAP1 DIV PUSH20 0xFFFFFFFFFFFFFFFFFFFFFFFFFFFFFFFFFFFFFFFF AND DUP2 JUMP JUMPDEST PUSH2 0x571 PUSH2 0x864 JUMP JUMPDEST PUSH2 0x57A PUSH0 PUSH2 0x9EC JUMP JUMPDEST JUMP JUMPDEST PUSH1 0x3 SLOAD DUP2 JUMP JUMPDEST PUSH0 DUP2 GT PUSH2 0x5C4 JUMPI PUSH1 0x40 MLOAD PUSH32 0x8C379A000000000000000000000000000000000000000000000000000000000 DUP2 MSTORE PUSH1 0x4 ADD PUSH2 0x5BB SWAP1 PUSH2 0xEA7 JUMP JUMPDEST PUSH1 0x40 MLOAD DUP1 SWAP2 SUB SWAP1 REVERT JUMPDEST PUSH0 PUSH1 0x3 SLOAD GT PUSH2 0x608 JUMPI PUSH1 0x40 MLOAD PUSH32 0x8C379A000000000000000000000000000000000000000000000000000000000 DUP2 MSTORE PUSH1 0x4 ADD PUSH2 0x5FF SWAP1 PUSH2 0xF0F JUMP JUMPDEST PUSH1 0x40 MLOAD DUP1 SWAP2 SUB SWAP1 REVERT JUMPDEST PUSH2 0x656 CALLER ADDRESS DUP4 PUSH1 0x2 PUSH0 SWAP1 SLOAD SWAP1 PUSH2 0x100 EXP SWAP1 DIV PUSH20 0xFFFFFFFFFFFFFFFFFFFFFFFFFFFFFFFFFFFFFFFF AND PUSH20 0xFFFFFFFFFFFFFFFFFFFFFFFFFFFFFFFFFFFFFFFF AND PUSH2 0x96A SWAP1 SWAP4 SWAP3 SWAP2 SWAP1 PUSH4 0xFFFFFFFF AND JUMP JUMPDEST PUSH0 PUSH1 0x1 PUSH1 0x5 TIMESTAMP PREVRANDAO CALLER PUSH1 0x40 MLOAD PUSH1 0x20 ADD PUSH2 0x670 SWAP4 SWAP3 SWAP2 SWAP1 PUSH2 0xF92 JUMP JUMPDEST PUSH1 0x40 MLOAD PUSH1 0x20 DUP2 DUP4 SUB SUB DUP2 MSTORE SWAP1 PUSH1 0x40 MSTORE DUP1 MLOAD SWAP1 PUSH1 0x20 ADD KECCAK256 PUSH0 SHR PUSH2 0x692 SWAP2 SWAP1 PUSH2 0xFFB JUMP JUMPDEST PUSH2 0x69C SWAP2 SWAP1 PUSH2 0xE04 JUMP JUMPDEST SWAP1 POP PUSH0 DUP2 PUSH3 0xF4240 DUP5 PUSH2 0x6AF SWAP2 SWAP1 PUSH2 0x102B JUMP JUMPDEST PUSH2 0x6B9 SWAP2 SWAP1 PUSH2 0x105B JUMP JUMPDEST SWAP1 POP PUSH1 0x3 SLOAD DUP2 GT ISZERO PUSH2 0x700 JUMPI PUSH1 0x40 MLOAD PUSH32 0x8C379A000000000000000000000000000000000000000000000000000000000 DUP2 MSTORE PUSH1 0x4 ADD PUSH2 0x6F7 SWAP1 PUSH2 0x10E6 JUMP JUMPDEST PUSH1 0x40 MLOAD DUP1 SWAP2 SUB SWAP1 REVERT JUMPDEST DUP1 PUSH1 0x3 PUSH0 DUP3 DUP3 SLOAD PUSH2 0x711 SWAP2 SWAP1 PUSH2 0x1104 JUMP JUMPDEST SWAP3 POP POP DUP2 SWAP1 SSTORE POP PUSH2 0x764 CALLER DUP3 PUSH1 0x1 PUSH0 SWAP1 SLOAD SWAP1 PUSH2 0x100 EXP SWAP1 DIV PUSH20 0xFFFFFFFFFFFFFFFFFFFFFFFFFFFFFFFFFFFFFFFF AND PUSH20 0xFFFFFFFFFFFFFFFFFFFFFFFFFFFFFFFFFFFFFFFF AND PUSH2 0x8EB SWAP1 SWAP3 SWAP2 SWAP1 PUSH4 0xFFFFFFFF AND JUMP JUMPDEST CALLER PUSH20 0xFFFFFFFFFFFFFFFFFFFFFFFFFFFFFFFFFFFFFFFF AND PUSH32 0x6DD63C9A34674245C3658D149FF4D640423EB11008C777A57783C3237D96FFCF DUP5 DUP4 PUSH1 0x40 MLOAD PUSH2 0x7AC SWAP3 SWAP2 SWAP1 PUSH2 0x1137 JUMP JUMPDEST PUSH1 0x40 MLOAD DUP1 SWAP2 SUB SWAP1 LOG2 POP POP POP JUMP JUMPDEST PUSH0 DUP1 PUSH0 SWAP1 SLOAD SWAP1 PUSH2 0x100 EXP SWAP1 DIV PUSH20 0xFFFFFFFFFFFFFFFFFFFFFFFFFFFFFFFFFFFFFFFF AND SWAP1 POP SWAP1 JUMP JUMPDEST PUSH2 0x7E8 PUSH2 0x864 JUMP JUMPDEST PUSH0 PUSH20 0xFFFFFFFFFFFFFFFFFFFFFFFFFFFFFFFFFFFFFFFF AND DUP2 PUSH20 0xFFFFFFFFFFFFFFFFFFFFFFFFFFFFFFFFFFFFFFFF AND SUB PUSH2 0x858 JUMPI PUSH0 PUSH1 0x40 MLOAD PUSH32 0x1E4FBDF700000000000000000000000000000000000000000000000000000000 DUP2 MSTORE PUSH1 0x4 ADD PUSH2 0x84F SWAP2 SWAP1 PUSH2 0xC8C JUMP JUMPDEST PUSH1 0x40 MLOAD DUP1 SWAP2 SUB SWAP1 REVERT JUMPDEST PUSH2 0x861 DUP2 PUSH2 0x9EC JUMP JUMPDEST POP JUMP JUMPDEST PUSH2 0x86C PUSH2 0xAAD JUMP JUMPDEST PUSH20 0xFFFFFFFFFFFFFFFFFFFFFFFFFFFFFFFFFFFFFFFF AND PUSH2 0x88A PUSH2 0x7B9 JUMP JUMPDEST PUSH20 0xFFFFFFFFFFFFFFFFFFFFFFFFFFFFFFFFFFFFFFFF AND EQ PUSH2 0x8E9 JUMPI PUSH2 0x8AD PUSH2 0xAAD JUMP JUMPDEST PUSH1 0x40 MLOAD PUSH32 0x118CDAA700000000000000000000000000000000000000000000000000000000 DUP2 MSTORE PUSH1 0x4 ADD PUSH2 0x8E0 SWAP2 SWAP1 PUSH2 0xC8C JUMP JUMPDEST PUSH1 0x40 MLOAD DUP1 SWAP2 SUB SWAP1 REVERT JUMPDEST JUMP JUMPDEST PUSH2 0x965 DUP4 DUP5 PUSH20 0xFFFFFFFFFFFFFFFFFFFFFFFFFFFFFFFFFFFFFFFF AND PUSH4 0xA9059CBB DUP6 DUP6 PUSH1 0x40 MLOAD PUSH1 0x24 ADD PUSH2 0x91E SWAP3 SWAP2 SWAP1 PUSH2 0x115E JUMP JUMPDEST PUSH1 0x40 MLOAD PUSH1 0x20 DUP2 DUP4 SUB SUB DUP2 MSTORE SWAP1 PUSH1 0x40 MSTORE SWAP2 POP PUSH1 0xE0 SHL PUSH1 0x20 DUP3 ADD DUP1 MLOAD PUSH28 0xFFFFFFFFFFFFFFFFFFFFFFFFFFFFFFFFFFFFFFFFFFFFFFFFFFFFFFFF DUP4 DUP2 DUP4 AND OR DUP4 MSTORE POP POP POP POP PUSH2 0xAB4 JUMP JUMPDEST POP POP POP JUMP JUMPDEST PUSH2 0x9E6 DUP5 DUP6 PUSH20 0xFFFFFFFFFFFFFFFFFFFFFFFFFFFFFFFFFFFFFFFF AND PUSH4 0x23B872DD DUP7 DUP7 DUP7 PUSH1 0x40 MLOAD PUSH1 0x24 ADD PUSH2 0x99F SWAP4 SWAP3 SWAP2 SWAP1 PUSH2 0x1185 JUMP JUMPDEST PUSH1 0x40 MLOAD PUSH1 0x20 DUP2 DUP4 SUB SUB DUP2 MSTORE SWAP1 PUSH1 0x40 MSTORE SWAP2 POP PUSH1 0xE0 SHL PUSH1 0x20 DUP3 ADD DUP1 MLOAD PUSH28 0xFFFFFFFFFFFFFFFFFFFFFFFFFFFFFFFFFFFFFFFFFFFFFFFFFFFFFFFF DUP4 DUP2 DUP4 AND OR DUP4 MSTORE POP POP POP POP PUSH2 0xAB4 JUMP JUMPDEST POP POP POP POP JUMP JUMPDEST PUSH0 DUP1 PUSH0 SWAP1 SLOAD SWAP1 PUSH2 0x100 EXP SWAP1 DIV PUSH20 0xFFFFFFFFFFFFFFFFFFFFFFFFFFFFFFFFFFFFFFFF AND SWAP1 POP DUP2 PUSH0 DUP1 PUSH2 0x100 EXP DUP2 SLOAD DUP2 PUSH20 0xFFFFFFFFFFFFFFFFFFFFFFFFFFFFFFFFFFFFFFFF MUL NOT AND SWAP1 DUP4 PUSH20 0xFFFFFFFFFFFFFFFFFFFFFFFFFFFFFFFFFFFFFFFF AND MUL OR SWAP1 SSTORE POP DUP2 PUSH20 0xFFFFFFFFFFFFFFFFFFFFFFFFFFFFFFFFFFFFFFFF AND DUP2 PUSH20 0xFFFFFFFFFFFFFFFFFFFFFFFFFFFFFFFFFFFFFFFF AND PUSH32 0x8BE0079C531659141344CD1FD0A4F28419497F9722A3DAAFE3B4186F6B6457E0 PUSH1 0x40 MLOAD PUSH1 0x40 MLOAD DUP1 SWAP2 SUB SWAP1 LOG3 POP POP JUMP JUMPDEST PUSH0 CALLER SWAP1 POP SWAP1 JUMP JUMPDEST PUSH0 DUP1 PUSH1 0x20 PUSH0 DUP5 MLOAD PUSH1 0x20 DUP7 ADD PUSH0 DUP9 GAS CALL DUP1 PUSH2 0xAD3 JUMPI PUSH1 0x40 MLOAD RETURNDATASIZE PUSH0 DUP3 RETURNDATACOPY RETURNDATASIZE DUP2 REVERT JUMPDEST RETURNDATASIZE SWAP3 POP PUSH0 MLOAD SWAP2 POP POP PUSH0 DUP3 EQ PUSH2 0xAEC JUMPI PUSH1 0x1 DUP2 EQ ISZERO PUSH2 0xB07 JUMP JUMPDEST PUSH0 DUP5 PUSH20 0xFFFFFFFFFFFFFFFFFFFFFFFFFFFFFFFFFFFFFFFF AND EXTCODESIZE EQ JUMPDEST ISZERO PUSH2 0xB49 JUMPI DUP4 PUSH1 0x40 MLOAD PUSH32 0x5274AFE700000000000000000000000000000000000000000000000000000000 DUP2 MSTORE PUSH1 0x4 ADD PUSH2 0xB40 SWAP2 SWAP1 PUSH2 0xC8C JUMP JUMPDEST PUSH1 0x40 MLOAD DUP1 SWAP2 SUB SWAP1 REVERT JUMPDEST POP POP POP POP JUMP JUMPDEST PUSH0 PUSH20 0xFFFFFFFFFFFFFFFFFFFFFFFFFFFFFFFFFFFFFFFF DUP3 AND SWAP1 POP SWAP2 SWAP1 POP JUMP JUMPDEST PUSH0 DUP2 SWAP1 POP SWAP2 SWAP1 POP JUMP JUMPDEST PUSH0 PUSH2 0xB91 PUSH2 0xB8C PUSH2 0xB87 DUP5 PUSH2 0xB4F JUMP JUMPDEST PUSH2 0xB6E JUMP JUMPDEST PUSH2 0xB4F JUMP JUMPDEST SWAP1 POP SWAP2 SWAP1 POP JUMP JUMPDEST PUSH0 PUSH2 0xBA2 DUP3 PUSH2 0xB77 JUMP JUMPDEST SWAP1 POP SWAP2 SWAP1 POP JUMP JUMPDEST PUSH0 PUSH2 0xBB3 DUP3 PUSH2 0xB98 JUMP JUMPDEST SWAP1 POP SWAP2 SWAP1 POP JUMP JUMPDEST PUSH2 0xBC3 DUP2 PUSH2 0xBA9 JUMP JUMPDEST DUP3 MSTORE POP POP JUMP JUMPDEST PUSH0 PUSH1 0x20 DUP3 ADD SWAP1 POP PUSH2 0xBDC PUSH0 DUP4 ADD DUP5 PUSH2 0xBBA JUMP JUMPDEST SWAP3 SWAP2 POP POP JUMP JUMPDEST PUSH0 DUP1 REVERT JUMPDEST PUSH0 DUP2 SWAP1 POP SWAP2 SWAP1 POP JUMP JUMPDEST PUSH2 0xBF8 DUP2 PUSH2 0xBE6 JUMP JUMPDEST DUP2 EQ PUSH2 0xC02 JUMPI PUSH0 DUP1 REVERT JUMPDEST POP JUMP JUMPDEST PUSH0 DUP2 CALLDATALOAD SWAP1 POP PUSH2 0xC13 DUP2 PUSH2 0xBEF JUMP JUMPDEST SWAP3 SWAP2 POP POP JUMP JUMPDEST PUSH0 PUSH1 0x20 DUP3 DUP5 SUB SLT ISZERO PUSH2 0xC2E JUMPI PUSH2 0xC2D PUSH2 0xBE2 JUMP JUMPDEST JUMPDEST PUSH0 PUSH2 0xC3B DUP5 DUP3 DUP6 ADD PUSH2 0xC05 JUMP JUMPDEST SWAP2 POP POP SWAP3 SWAP2 POP POP JUMP JUMPDEST PUSH2 0xC4D DUP2 PUSH2 0xBE6 JUMP JUMPDEST DUP3 MSTORE POP POP JUMP JUMPDEST PUSH0 PUSH1 0x20 DUP3 ADD SWAP1 POP PUSH2 0xC66 PUSH0 DUP4 ADD DUP5 PUSH2 0xC44 JUMP JUMPDEST SWAP3 SWAP2 POP POP JUMP JUMPDEST PUSH0 PUSH2 0xC76 DUP3 PUSH2 0xB4F JUMP JUMPDEST SWAP1 POP SWAP2 SWAP1 POP JUMP JUMPDEST PUSH2 0xC86 DUP2 PUSH2 0xC6C JUMP JUMPDEST DUP3 MSTORE POP POP JUMP JUMPDEST PUSH0 PUSH1 0x20 DUP3 ADD SWAP1 POP PUSH2 0xC9F PUSH0 DUP4 ADD DUP5 PUSH2 0xC7D JUMP JUMPDEST SWAP3 SWAP2 POP POP JUMP JUMPDEST PUSH2 0xCAE DUP2 PUSH2 0xC6C JUMP JUMPDEST DUP2 EQ PUSH2 0xCB8 JUMPI PUSH0 DUP1 REVERT JUMPDEST POP JUMP JUMPDEST PUSH0 DUP2 CALLDATALOAD SWAP1 POP PUSH2 0xCC9 DUP2 PUSH2 0xCA5 JUMP JUMPDEST SWAP3 SWAP2 POP POP JUMP JUMPDEST PUSH0 PUSH1 0x20 DUP3 DUP5 SUB SLT ISZERO PUSH2 0xCE4 JUMPI PUSH2 0xCE3 PUSH2 0xBE2 JUMP JUMPDEST JUMPDEST PUSH0 PUSH2 0xCF1 DUP5 DUP3 DUP6 ADD PUSH2 0xCBB JUMP JUMPDEST SWAP2 POP POP SWAP3 SWAP2 POP POP JUMP JUMPDEST PUSH0 DUP2 MLOAD SWAP1 POP PUSH2 0xD08 DUP2 PUSH2 0xBEF JUMP JUMPDEST SWAP3 SWAP2 POP POP JUMP JUMPDEST PUSH0 PUSH1 0x20 DUP3 DUP5 SUB SLT ISZERO PUSH2 0xD23 JUMPI PUSH2 0xD22 PUSH2 0xBE2 JUMP JUMPDEST JUMPDEST PUSH0 PUSH2 0xD30 DUP5 DUP3 DUP6 ADD PUSH2 0xCFA JUMP JUMPDEST SWAP2 POP POP SWAP3 SWAP2 POP POP JUMP JUMPDEST PUSH0 DUP3 DUP3 MSTORE PUSH1 0x20 DUP3 ADD SWAP1 POP SWAP3 SWAP2 POP POP JUMP JUMPDEST PUSH32 0x5072697A6520616D6F756E74206D757374206265206772656174657220746861 PUSH0 DUP3 ADD MSTORE PUSH32 0x6E207A65726F0000000000000000000000000000000000000000000000000000 PUSH1 0x20 DUP3 ADD MSTORE POP JUMP JUMPDEST PUSH0 PUSH2 0xDA3 PUSH1 0x26 DUP4 PUSH2 0xD39 JUMP JUMPDEST SWAP2 POP PUSH2 0xDAE DUP3 PUSH2 0xD49 JUMP JUMPDEST PUSH1 0x40 DUP3 ADD SWAP1 POP SWAP2 SWAP1 POP JUMP JUMPDEST PUSH0 PUSH1 0x20 DUP3 ADD SWAP1 POP DUP2 DUP2 SUB PUSH0 DUP4 ADD MSTORE PUSH2 0xDD0 DUP2 PUSH2 0xD97 JUMP JUMPDEST SWAP1 POP SWAP2 SWAP1 POP JUMP JUMPDEST PUSH32 0x4E487B7100000000000000000000000000000000000000000000000000000000 PUSH0 MSTORE PUSH1 0x11 PUSH1 0x4 MSTORE PUSH1 0x24 PUSH0 REVERT JUMPDEST PUSH0 PUSH2 0xE0E DUP3 PUSH2 0xBE6 JUMP JUMPDEST SWAP2 POP PUSH2 0xE19 DUP4 PUSH2 0xBE6 JUMP JUMPDEST SWAP3 POP DUP3 DUP3 ADD SWAP1 POP DUP1 DUP3 GT ISZERO PUSH2 0xE31 JUMPI PUSH2 0xE30 PUSH2 0xDD7 JUMP JUMPDEST JUMPDEST SWAP3 SWAP2 POP POP JUMP JUMPDEST PUSH32 0x4465706F73697420616D6F756E74206D75737420626520677265617465722074 PUSH0 DUP3 ADD MSTORE PUSH32 0x68616E207A65726F000000000000000000000000000000000000000000000000 PUSH1 0x20 DUP3 ADD MSTORE POP JUMP JUMPDEST PUSH0 PUSH2 0xE91 PUSH1 0x28 DUP4 PUSH2 0xD39 JUMP JUMPDEST SWAP2 POP PUSH2 0xE9C DUP3 PUSH2 0xE37 JUMP JUMPDEST PUSH1 0x40 DUP3 ADD SWAP1 POP SWAP2 SWAP1 POP JUMP JUMPDEST PUSH0 PUSH1 0x20 DUP3 ADD SWAP1 POP DUP2 DUP2 SUB PUSH0 DUP4 ADD MSTORE PUSH2 0xEBE DUP2 PUSH2 0xE85 JUMP JUMPDEST SWAP1 POP SWAP2 SWAP1 POP JUMP JUMPDEST PUSH32 0x5072697A6520706F6F6C20697320656D70747900000000000000000000000000 PUSH0 DUP3 ADD MSTORE POP JUMP JUMPDEST PUSH0 PUSH2 0xEF9 PUSH1 0x13 DUP4 PUSH2 0xD39 JUMP JUMPDEST SWAP2 POP PUSH2 0xF04 DUP3 PUSH2 0xEC5 JUMP JUMPDEST PUSH1 0x20 DUP3 ADD SWAP1 POP SWAP2 SWAP1 POP JUMP JUMPDEST PUSH0 PUSH1 0x20 DUP3 ADD SWAP1 POP DUP2 DUP2 SUB PUSH0 DUP4 ADD MSTORE PUSH2 0xF26 DUP2 PUSH2 0xEED JUMP JUMPDEST SWAP1 POP SWAP2 SWAP1 POP JUMP JUMPDEST PUSH0 DUP2 SWAP1 POP SWAP2 SWAP1 POP JUMP JUMPDEST PUSH2 0xF47 PUSH2 0xF42 DUP3 PUSH2 0xBE6 JUMP JUMPDEST PUSH2 0xF2D JUMP JUMPDEST DUP3 MSTORE POP POP JUMP JUMPDEST PUSH0 DUP2 PUSH1 0x60 SHL SWAP1 POP SWAP2 SWAP1 POP JUMP JUMPDEST PUSH0 PUSH2 0xF63 DUP3 PUSH2 0xF4D JUMP JUMPDEST SWAP1 POP SWAP2 SWAP1 POP JUMP JUMPDEST PUSH0 PUSH2 0xF74 DUP3 PUSH2 0xF59 JUMP JUMPDEST SWAP1 POP SWAP2 SWAP1 POP JUMP JUMPDEST PUSH2 0xF8C PUSH2 0xF87 DUP3 PUSH2 0xC6C JUMP JUMPDEST PUSH2 0xF6A JUMP JUMPDEST DUP3 MSTORE POP POP JUMP JUMPDEST PUSH0 PUSH2 0xF9D DUP3 DUP7 PUSH2 0xF36 JUMP JUMPDEST PUSH1 0x20 DUP3 ADD SWAP2 POP PUSH2 0xFAD DUP3 DUP6 PUSH2 0xF36 JUMP JUMPDEST PUSH1 0x20 DUP3 ADD SWAP2 POP PUSH2 0xFBD DUP3 DUP5 PUSH2 0xF7B JUMP JUMPDEST PUSH1 0x14 DUP3 ADD SWAP2 POP DUP2 SWAP1 POP SWAP5 SWAP4 POP POP POP POP JUMP JUMPDEST PUSH32 0x4E487B7100000000000000000000000000000000000000000000000000000000 PUSH0 MSTORE PUSH1 0x12 PUSH1 0x4 MSTORE PUSH1 0x24 PUSH0 REVERT JUMPDEST PUSH0 PUSH2 0x1005 DUP3 PUSH2 0xBE6 JUMP JUMPDEST SWAP2 POP PUSH2 0x1010 DUP4 PUSH2 0xBE6 JUMP JUMPDEST SWAP3 POP DUP3 PUSH2 0x1020 JUMPI PUSH2 0x101F PUSH2 0xFCE JUMP JUMPDEST JUMPDEST DUP3 DUP3 MOD SWAP1 POP SWAP3 SWAP2 POP POP JUMP JUMPDEST PUSH0 PUSH2 0x1035 DUP3 PUSH2 0xBE6 JUMP JUMPDEST SWAP2 POP PUSH2 0x1040 DUP4 PUSH2 0xBE6 JUMP JUMPDEST SWAP3 POP DUP3 PUSH2 0x1050 JUMPI PUSH2 0x104F PUSH2 0xFCE JUMP JUMPDEST JUMPDEST DUP3 DUP3 DIV SWAP1 POP SWAP3 SWAP2 POP POP JUMP JUMPDEST PUSH0 PUSH2 0x1065 DUP3 PUSH2 0xBE6 JUMP JUMPDEST SWAP2 POP PUSH2 0x1070 DUP4 PUSH2 0xBE6 JUMP JUMPDEST SWAP3 POP DUP3 DUP3 MUL PUSH2 0x107E DUP2 PUSH2 0xBE6 JUMP JUMPDEST SWAP2 POP DUP3 DUP3 DIV DUP5 EQ DUP4 ISZERO OR PUSH2 0x1095 JUMPI PUSH2 0x1094 PUSH2 0xDD7 JUMP JUMPDEST JUMPDEST POP SWAP3 SWAP2 POP POP JUMP JUMPDEST PUSH32 0x4E6F7420656E6F75676820435A3420696E207072697A6520706F6F6C00000000 PUSH0 DUP3 ADD MSTORE POP JUMP JUMPDEST PUSH0 PUSH2 0x10D0 PUSH1 0x1C DUP4 PUSH2 0xD39 JUMP JUMPDEST SWAP2 POP PUSH2 0x10DB DUP3 PUSH2 0x109C JUMP JUMPDEST PUSH1 0x20 DUP3 ADD SWAP1 POP SWAP2 SWAP1 POP JUMP JUMPDEST PUSH0 PUSH1 0x20 DUP3 ADD SWAP1 POP DUP2 DUP2 SUB PUSH0 DUP4 ADD MSTORE PUSH2 0x10FD DUP2 PUSH2 0x10C4 JUMP JUMPDEST SWAP1 POP SWAP2 SWAP1 POP JUMP JUMPDEST PUSH0 PUSH2 0x110E DUP3 PUSH2 0xBE6 JUMP JUMPDEST SWAP2 POP PUSH2 0x1119 DUP4 PUSH2 0xBE6 JUMP JUMPDEST SWAP3 POP DUP3 DUP3 SUB SWAP1 POP DUP2 DUP2 GT ISZERO PUSH2 0x1131 JUMPI PUSH2 0x1130 PUSH2 0xDD7 JUMP JUMPDEST JUMPDEST SWAP3 SWAP2 POP POP JUMP JUMPDEST PUSH0 PUSH1 0x40 DUP3 ADD SWAP1 POP PUSH2 0x114A PUSH0 DUP4 ADD DUP6 PUSH2 0xC44 JUMP JUMPDEST PUSH2 0x1157 PUSH1 0x20 DUP4 ADD DUP5 PUSH2 0xC44 JUMP JUMPDEST SWAP4 SWAP3 POP POP POP JUMP JUMPDEST PUSH0 PUSH1 0x40 DUP3 ADD SWAP1 POP PUSH2 0x1171 PUSH0 DUP4 ADD DUP6 PUSH2 0xC7D JUMP JUMPDEST PUSH2 0x117E PUSH1 0x20 DUP4 ADD DUP5 PUSH2 0xC44 JUMP JUMPDEST SWAP4 SWAP3 POP POP POP JUMP JUMPDEST PUSH0 PUSH1 0x60 DUP3 ADD SWAP1 POP PUSH2 0x1198 PUSH0 DUP4 ADD DUP7 PUSH2 0xC7D JUMP JUMPDEST PUSH2 0x11A5 PUSH1 0x20 DUP4 ADD DUP6 PUSH2 0xC7D JUMP JUMPDEST PUSH2 0x11B2 PUSH1 0x40 DUP4 ADD DUP5 PUSH2 0xC44 JUMP JUMPDEST SWAP5 SWAP4 POP POP POP POP JUMP INVALID LOG2 PUSH5 0x6970667358 0x22 SLT KECCAK256 MUL 0xDD PUSH22 0xBBA71C59916E82E7EE054CB13B51C652066503C2981B DUP3 LOG3 CREATE2 PC 0xCC PUSH0 0xCA PUSH5 0x736F6C6343 STOP ADDMOD BYTE STOP CALLER "
				},
				"gasEstimates": {
					"creation": {
						"codeDepositCost": "918400",
						"executionCost": "infinite",
						"totalCost": "infinite"
					},
					"external": {
						"addPrize(uint256)": "infinite",
						"cz4Token()": "infinite",
						"depositFASU(uint256)": "infinite",
						"fasuToken()": "infinite",
						"owner()": "2581",
						"prizeAmount()": "2447",
						"renounceOwnership()": "infinite",
						"transferOwnership(address)": "infinite",
						"withdrawFunds()": "infinite"
					}
				},
				"methodIdentifiers": {
					"addPrize(uint256)": "2a050024",
					"cz4Token()": "1e1a6e6e",
					"depositFASU(uint256)": "79d4964f",
					"fasuToken()": "44a88070",
					"owner()": "8da5cb5b",
					"prizeAmount()": "785fa627",
					"renounceOwnership()": "715018a6",
					"transferOwnership(address)": "f2fde38b",
					"withdrawFunds()": "24600fc3"
				}
			},
			"storageLayout": {
				"storage": [
					{
						"astId": 8,
						"contract": "contracts/GameContract.sol:GameContract",
						"label": "_owner",
						"offset": 0,
						"slot": "0",
						"type": "t_address"
					},
					{
						"astId": 1064,
						"contract": "contracts/GameContract.sol:GameContract",
						"label": "cz4Token",
						"offset": 0,
						"slot": "1",
						"type": "t_contract(IERC20)315"
					},
					{
						"astId": 1067,
						"contract": "contracts/GameContract.sol:GameContract",
						"label": "fasuToken",
						"offset": 0,
						"slot": "2",
						"type": "t_contract(IERC20)315"
					},
					{
						"astId": 1069,
						"contract": "contracts/GameContract.sol:GameContract",
						"label": "prizeAmount",
						"offset": 0,
						"slot": "3",
						"type": "t_uint256"
					}
				],
				"types": {
					"t_address": {
						"encoding": "inplace",
						"label": "address",
						"numberOfBytes": "20"
					},
					"t_contract(IERC20)315": {
						"encoding": "inplace",
						"label": "contract IERC20",
						"numberOfBytes": "20"
					},
					"t_uint256": {
						"encoding": "inplace",
						"label": "uint256",
						"numberOfBytes": "32"
					}
				}
			},
			"userdoc": {
				"kind": "user",
				"methods": {},
				"version": 1
			}
		}
	}
}